:020000040800F2
:10000000E0080020852D0008093000080B300008AA
:100010000F300008133000081730000800000000FF
:100020000000000000000000000000001B3000087D
:100030001D300008000000001F30000821300008BB
:100040009F2D00089F2D00089F2D00089F2D000860
:100050009F2D00089F2D00089F2D00089F2D000850
:100060009F2D00089F2D00089F2D00089F2D000840
:100070009F2D00089F2D00089F2D00089F2D000830
:100080009F2D00089F2D00089F2D00089F2D000820
:100090009F2D00089F2D00089F2D00089F2D000810
:1000A0009F2D00089F2D00089F2D00089F2D000800
:1000B0009F2D00089F2D00089F2D00089F2D0008F0
:1000C0009F2D00089F2D00089F2D00089F2D0008E0
:1000D0009F2D0008F12F00089F2D0008A90300089C
:1000E0009F2D00089F2D00089F2D000800F002F8AA
:1000F00000F05AF80AA090E8000C82448344AAF168
:100100000107DA4501D100F04FF8AFF2090EBAE865
:100110000F0013F0010F18BFFB1A43F0010318473B
:1001200008450000284500000A444FF0000C10F874
:10013000013B13F0070408BF10F8014B1D1108BF65
:1001400010F8015B641E05D010F8016B641E01F805
:10015000016BF9D113F0080F1EBF10F8014BAD1C55
:100160000C1B09D16D1E58BF01F801CBFAD505E073
:1001700014F8016B01F8016B6D1EF9D59142D6D3CD
:10018000704700000023002400250026103A28BFF5
:1001900078C1FBD8520728BF30C148BF0B607047F9
:1001A0001FB51FBD10B510BD03F0D6F81146FFF7FF
:1001B000F7FF00F008F803F0F4F803B4FFF7F2FFDC
:1001C00003BC02F0C3FE00F006F800F02CF801E0DA
:1001D00000F082F8FCE710B502F0B2FE012002F058
:1001E000FEFF02F0EFFD00F04EF900F056F900F0CE
:1001F0001FF900F043F910BD10B500200A4908604E
:100200000C230AA2072100F0DAFA0948D0F82401E9
:1002100028B90C2307A20121002000F0D0FA002009
:100220000749086010BD7047B40122424F4B0000DF
:1002300000802142427574746F6E5F4F4B00000066
:10024000940121422DE9F843002400F0EFFC04461C
:10025000642094FBF0F009281FDA642094FBF0F08E
:1002600005281ADD102347A20021084600F0A7FA4E
:10027000102344A20221002000F0A1FA102341A281
:100280000421002000F09BFA10233EA2062100204A
:1002900000F095FA00F093F913E0204603F045FAD8
:1002A000074600223B4B03F0B9F8054603F084F8FB
:1002B0008146022003464A4600210090084600F08D
:1002C00016FC3548008800F4004018B13349324824
:1002D00000F0A0FFBDE8F8832DE9F843002400F00A
:1002E000A5FC0446642094FBF0F009281FDA642082
:1002F00094FBF0F005281ADD102322A20021084605
:1003000000F05DFA10231FA20221002000F057FA2E
:1003100010231CA20421002000F051FA102319A27E
:100320000621002000F04BFA00F049F913E02046C6
:1003300003F0FBF907460022164B03F06FF8054661
:1003400003F03AF88146022003464A460021009015
:10035000084600F0CCFB1048008800F4004018B1BB
:100360000E490D4800F056FF0D48006838B90D4899
:10037000006808B9012000E000200A490860BDE8D3
:10038000F883000021215620697320746F6F206C60
:100390006F7700000000594004000020B8010020E1
:1003A000248121429401214210B540F225511D487B
:1003B00002F0A4FC10B31B4802F020FCC4B21A489F
:1003C000008800F40040C8B91748008800F4804055
:1003D00060B10A2C03D000201349088020E01248A5
:1003E000008840F400401049088019E00D2C06D127
:1003F0000D48008840F480400B49088010E00A480E
:100400000088C0F30D0009490C5407480088401CBF
:100410000549088008460088C72801DD00200880BB
:1004200010BD00000048004004000020B80100207A
:1004300010B500F033F84FF4E13000F045F800F06B
:1004400088FA00F0E5FB10BD10B50C2309A20021CD
:10045000084600F0B4F910BD10B50748006838B977
:10046000142002F00AFD0448006808B9012010BDFC
:100470000020FCE74F4B00002481214210B500F022
:10048000D1FB10BD704710B500F008FC232140F2ED
:10049000E73000F00DFC10BD7047704710B5032326
:1004A00010225102014800F0E9FD10BD001001408A
:1004B00000BF0F4A128802F04002002AF9D0C2B2EF
:1004C0000B4B1B1D1A80704710B5044603231822DE
:1004D0004FF48061074800F0D1FD04225102054825
:1004E00000F004FE2146024800F042FE10BD00006C
:1004F00000480040000C014070B504460E4626B18D
:100500002021FE4801F0BBF803E02021FB4801F068
:10051000B8F8002519E04FF48071F84801F0B1F8FF
:1005200004F0800020B18021F44801F0A8F803E035
:100530008021F24801F0A5F84FF48071EF4801F0F6
:100540009EF86006040E681CC5B2082DE3DB20216E
:10055000EA4801F094F870BD70B504460D4605F107
:10056000B001C8B20021FFF7C7FF102141EA141003
:100570000021FFF7C1FF04F00F0141F0010000214D
:10058000FFF7BAFF70BD10B500218D20FFF7B4FF53
:1005900000211420FFF7B0FF0021AF20FFF7ACFFD0
:1005A00010BD10B500218D20FFF7A6FF00211020FF
:1005B000FFF7A2FF0021AE20FFF79EFF10BD70B530
:1005C000002419E004F1B001C8B20021FFF794FF44
:1005D00000210846FFF790FF00211020FFF78CFF55
:1005E000002505E001210020FFF786FF681CC5B249
:1005F000802DF7DB601CC4B2082CE3DB70BD2DE955
:10060000F04707460E469046994600250024A8F17B
:100610002000C5B27F2F02DD0027B01CC6B2B9F1A1
:10062000100F24D131463846FFF796FF002408E02A
:1006300004EB0511B24A505C0121FFF75DFF601C1D
:10064000C4B2082CF4DB701CC1B23846FFF784FF3B
:10065000002409E004EB05110831A94A505C01218E
:10066000FFF74AFF601CC4B2082CF3DB12E03146EE
:100670003846FFF771FF00240AE005EB4501A14A67
:1006800002EB4101085D0121FFF736FF601CC4B297
:10069000062CF2DBBDE8F08710B50246012000E031
:1006A00050430B00A1F10104E1B2F9D110BD2DE9D5
:1006B000FF5F074691461E460E9D4FF0000A00243C
:1006C00035E0301B401EC1B20A20FFF7E5FFB9FB41
:1006D000F0F00A21B0FBF1F201FB1208BAF1000FB1
:1006E00014D1701EA04211DDB8F1000F0CD1AB4641
:1006F00005EBDB71491001FB0471C8B22B462022C7
:100700000199FFF77CFF10E04FF0010AAB4605EBC3
:10071000DB71491001FB0471C8B208F13001CAB2A3
:100720002B460199FFF76BFF00BF601CC4B2B442B7
:10073000C7DBBDE8FF9F2DE9FF5F074691461E46D8
:100740000E9D4FF0000A002435E0301B401EC1B260
:100750000A20FFF7A1FFB9FBF0F00A21B0FBF1F28C
:1007600001FB1208BAF1000F14D1701EA04211DD76
:10077000B8F1000F0CD1AB4605EBDB71491001FB62
:100780000471C8B22B4630220199FFF738FF10E000
:100790004FF0010AAB4605EBDB71491001FB047118
:1007A000C8B208F13001CAB22B460199FFF727FF02
:1007B00000BF601CC4B2B442C7DBBDE8FF9F2DE997
:1007C000F04104460F461546984600260FE0AA5D04
:1007D000434639462046FFF712FF04F10800C4B231
:1007E000782C02DD0024B81CC7B2701CC6B2A85D0C
:1007F0000028ECD1BDE8F0812DE9F04704460D4614
:1008000016469946002705F1B001C8B20021FFF74E
:1008100073FE00210846FFF76FFE00211020FFF74E
:100820006BFEB84607E001210020FFF765FE08F1E6
:10083000010000F0FF08B8F1800FF4DB0FE0F25D7B
:100840004B4629462046FFF7DAFE04F10800C4B201
:10085000782C02DD0024A81CC5B2781CC7B2F05D5C
:100860000028ECD1BDE8F0872DE9F04180460E4626
:100870001546002731464046FFF76EFE00240AE089
:10088000214A02EB8511085D0121FFF735FE781C36
:10089000C7B2601CC4B2102CF2DB701CC1B240465F
:1008A000FFF75AFE00240CE06900491C164A02EBCF
:1008B0004111085D0121FFF71FFE781CC7B2601CC3
:1008C000C4B2102CF0DBBDE8F0812DE9F05F0646E4
:1008D0000F4690461C46DDF828A04FF0000BE117AC
:1008E00004EB5171C910A4EBC10179B92046E1179D
:1008F00004EB5171C1F3C7050FE00000000C01408B
:10090000E63F0008BE3D0008060000202046E11733
:1009100004EB5171C910491CCDB23D4615E0294682
:100920003046FFF719FEB1460BE059460BF1010BBB
:100930001AF801000121FFF7DFFD09F1010000F0C5
:10094000FF09C145F1DB681CC5B2A542E7DBBDE884
:10095000F09F08B50121082001F0A0F84FF4F070D5
:10096000ADF8000010208DF8030003208DF8020080
:100970006946A24800F0D6FD4FF4F0719F4800F0A0
:100980007EFE40219D4800F07AFE642002F075FA58
:1009900040219A4800F075FEC82002F06EFA40210E
:1009A000964800F06CFE0021AE20FFF7A5FD002167
:1009B0000846FFF7A1FD00211020FFF79DFD002153
:1009C0004020FFF799FD00218120FFF795FD0021D0
:1009D000CF20FFF791FD0021A120FFF78DFD002121
:1009E000C820FFF789FD0021A620FFF785FD002123
:1009F000A820FFF781FD00213F20FFF77DFD0021AA
:100A0000D320FFF779FD00210846FFF775FD00218F
:100A1000D520FFF771FD00218020FFF76DFD00213B
:100A2000D920FFF769FD0021F120FFF765FD0021C6
:100A3000DA20FFF761FD00211220FFF75DFD0021A4
:100A4000DB20FFF759FD00214020FFF755FD002175
:100A50002020FFF751FD00210220FFF74DFD00216E
:100A60008D20FFF749FD00211420FFF745FD0021EF
:100A7000A420FFF741FD0021A620FFF73DFD002146
:100A8000AF20FFF739FD0021AF20FFF735FDFFF75D
:100A900096FD00210846FFF75FFD08BDF8B5044646
:100AA0000E4615461F46002D10DA0C2354A231467F
:100AB0002046FFF784FE0C2004F108010090C8B224
:100AC0003B466A423146FFF7F2FD0FE00C234DA290
:100AD00031462046FFF773FE0C2004F10801009018
:100AE000C8B23B462A463146FFF7E1FDF8BD2DE985
:100AF000F84F0546894614461E460A9F204602F0D6
:100B0000ABFF82463346524649462846FFF7C6FFAA
:100B1000204602F0A1FF834602F0BAFF824621463A
:100B200003F0CEF804464FF0000806E036492046B0
:100B300002F0FAFF044608F10108B845F6DB002F81
:100B400008DD711C05EBC101C8B20C232FA2494678
:100B5000FFF735FE0021204602F0B2FF01D284F0FB
:100B60000044204602F078FF82460C20B11C05EBC1
:100B7000C1010090C8B23B4652464946FFF7DBFD33
:100B8000BDE8F88F2DE9F04704460E461746984613
:100B9000089D284602F04BFB81460C232A4631462D
:100BA0002046FFF70CFE082101FB0941C8B243466D
:100BB0003A463146FFF772FFBDE8F0872DE9F84F5E
:100BC00005460C4616461F46DDE90A89284602F00E
:100BD0002EFB82460C232A4631462046FFF7EFFDC6
:100BE000082101FB0A41C8B243463A463146CDF8D6
:100BF0000090FFF77CFFBDE8F88F0000000C01407B
:100C00002D0000002B000000000020412E000000FD
:100C100010B548224FF40071014800F067FA10BD8A
:100C2000000C014010B500F0BBF810BD2DE9F04FED
:100C300087B0042000F041F9019002F08DFD80465C
:100C40004FF06632104B02F09BFD00220F4BCDE9B6
:100C5000020102F095FD00220D4BCDE9040102F0E6
:100C60008FFD064600220B4B02F0D8FB0446002203
:100C7000094B02F0D3FB824602F028FD069006984D
:100C800007B0BDE8F08F000066660A40000027400C
:100C9000000059400000F83F0000B04010B50323A9
:100CA00010222021014800F0E9F910BD00080140A0
:100CB0003EB504460D46032318220621324800F0B3
:100CC000DDF90020012100910346CDE901102F48F4
:100CD00029460268204600F01BF902231022012158
:100CE000294800F0CBF9022310224FF46041284834
:100CF00000F0C4F93EBD00202649086001202649C5
:100D0000C1F8B40100202549086001202249C1F83A
:100D1000B801704710B541F658311C48006801F021
:100D2000E9FD41F658311948006801F0E5FD10BDB4
:100D30000268002A01DA002202600268B2F57A7FB6
:100D400002DD4FF47A7202600A68002A01DA00229A
:100D50000A600A68B2F57A7F02DD4FF47A720A609F
:100D6000704713B501A96846FFF7E2FF009881B20A
:100D70000648006801F0BEFD019881B20348006892
:100D800001F0BAFD1CBD00000008014088010020F0
:100D900000100140BC012242000022428001214299
:100DA0005748806940F004005549886155480068FB
:100DB00020F47020534908605148806940F4007065
:100DC0004F4988610846C06840F40070C860084612
:100DD000C06820F40070C8600846406820F44040B5
:100DE00048600846406840F4004048604648006853
:100DF00046490840444908600846006808600846BB
:100E0000006820F480700860081D006820F002006F
:100E1000091D08600846006820F460200860084644
:100E2000006840F4602008600846006840F48010C4
:100E300008600846006820F40060086032482830E6
:100E4000006820F4700030492831086008460068C6
:100E5000002008602C480C30006820F470202A49DB
:100E60000C3108600846006840F4E04008602648FD
:100E7000001D006840F001002349091D0860084674
:100E8000006840F00800086000BF1F48001D0068AF
:100E900000F008000028F8D11B48001D006840F051
:100EA00004001949091D086000BF1748001D0068AB
:100EB00000F004000028F8D1704701461248303095
:100EC000006820F01F00104A3032106010460068A1
:100ED000084310600C48001D006840F480000A4A76
:100EE000121D106000BF0848001F006800F00200DB
:100EF0000028F8D004484830006880B270470000ED
:100F0000001002400008014004240140FFFFF000EF
:100F10002DE9F04788B006460F4614461D46DDE928
:100F2000119ADDF840804E48844204D10121C0145A
:100F300000F0B4FD36E0B4F1804F04D10121084641
:100F400000F0B9FD2EE04748844204D1012102207F
:100F500000F0B1FD26E04448844204D10121042080
:100F600000F0A9FD1EE04148844204D1012108207F
:100F700000F0A1FD16E03E48844204D1012110207A
:100F800000F099FD0EE03B48844204D1012120206D
:100F900000F091FD06E03848844203D1012140145D
:100FA00000F07CFDADF81860ADF814700020ADF8CD
:100FB0001A00ADF8160005A9204600F0A7FE702023
:100FC000ADF804000120ADF806000020ADF80A00DD
:100FD0000220ADF80C00012D03D101A9204600F03C
:100FE000D2FEB8F1010F03D101A9204600F00DFF98
:100FF000B9F1010F03D101A9204600F053FFBAF166
:10100000010F03D101A9204600F097FF01212046DE
:1010100001F0E2F9012D03D10821204601F000FB87
:10102000B8F1010F03D10821204601F002FBB9F10C
:10103000010F03D10821204601F008FBBAF1010F8E
:1010400003D10821204601F00AFB0121204601F0CE
:10105000B7FA0121204601F0B3F908B0BDE8F087E6
:10106000002C01400004004000080040000C00403B
:101070000010004000140040003401402DE9F84306
:1010800004460E46174698463248844201D104254C
:101090001CE03148844201D1082517E02F488442E2
:1010A00001D1102512E02E48844201D120250DE007
:1010B0002C48844201D1402508E02B48844201D1CC
:1010C000802503E02948844200D185150121284666
:1010D00000F0E4FCADF800608DF803708DF802803C
:1010E0006946204600F01EFABDE8F883F8B50446CC
:1010F0000E4617461748844201D104251CE01648C5
:10110000844201D1082517E01448844201D11025FA
:1011100012E01348844201D120250DE01148844299
:1011200001D1402508E01048844201D1802503E028
:101130000E48844200D185150121284600F0AEFCFE
:10114000ADF800608DF803706946204600F0EAF9BA
:10115000F8BD000000080140000C014000100140F3
:101160000014014000180140001C01400020014013
:1011700070B586B004460E462348844205D101214D
:10118000880300F08BFC252510E02048844205D11F
:101190000121480400F08FFC262507E01C4884420A
:1011A00004D10121880400F086FC2725204601F0A7
:1011B000E5FB8DF8045003208DF805008DF806003E
:1011C00001208DF8070001A800F0E3F80296002046
:1011D000ADF80C00ADF80E00ADF81000ADF814003D
:1011E0000C20ADF8120002A9204601F00AFC0122F1
:1011F00040F22551204601F09CFC0121204601F0DF
:101200008CFC06B070BD0000003801400044004076
:101210000048004030B595B005460C462822554997
:101220000BA802F023F828225249283101A802F025
:101230001DF800202988C1F30D0160540C232246BB
:101240000221FFF7D9FA0BA9204602F041F850B964
:10125000494800680A304849086008460168006843
:10126000FFF77FFD81E00DF13601204602F030F8F6
:1012700050B9414800680A383F490860084601688B
:101280000068FFF76EFD70E010A9204602F020F81C
:1012900058B90020394908603949C1F8B4013949C1
:1012A00008603749C1F8B8015FE00DF14A012046F6
:1012B00002F00EF850B933481430006808B9012024
:1012C00000E000202F49143108604EE001A92046BB
:1012D00001F0FEFF70B9002028490860012028496C
:1012E000C1F8B40100202749086001202449C1F851
:1012F000B8013AE00DF10E01204601F0E9FF70B9A6
:1013000001201E49086000201D49C1F8B4010120D8
:101310001C49086000201A49C1F8B80125E006A957
:10132000204601F0D5FF68B901201449086000206B
:101330001349C1F8B4011349086001201049C1F8EC
:10134000B80112E00DF12201204601F0C1FF60B9A1
:1013500000200A49086001200949C1F8B40109497F
:10136000086000200649C1F8B8010020288015B0A7
:1013700030BD0000D845000800000020BC0122421A
:10138000000022428001214231490143314A11606B
:10139000704770B5002100230F22C47804B32D4C90
:1013A000246804F4E064C4F5E064210AC1F1040394
:1013B000CA40447804FA03F18478144021430901B7
:1013C000254C0678A155047804F01F050124AC4093
:1013D00005786D11AD0005F1E025C5F8004109E083
:1013E000047804F01F050124AC401C4D06787611EA
:1013F00045F8264070BD1A4A0A400243154B1B1F90
:101400001A60704739B1134A121D12680243114B1A
:101410001B1D1A6006E00F4A121D126882430D4B15
:101420001B1D1A607047042808D14FF0E02109699C
:1014300041F004014FF0E022116107E04FF0E0219C
:10144000096921F004014FF0E022116170470000AA
:101450000000FA050CED00E000E400E080E100E0AF
:1014600080FFFF1F10B50446CC48844208D10121FB
:10147000042000F02DFB0021042000F029FB46E0B1
:10148000C748844208D10121082000F021FB002137
:10149000082000F01DFB3AE0C248844208D1012137
:1014A000102000F015FB0021102000F011FB2EE0B1
:1014B000BD48844208D10121202000F009FB002111
:1014C000202000F005FB22E0B848844208D1012129
:1014D000402000F0FDFA0021402000F0F9FA16E06B
:1014E000B348844208D10121802000F0F1FA0021A4
:1014F000802000F0EDFA0AE0AE48844207D10121D5
:10150000801500F0E5FA0021A01500F0E1FA10BD09
:1015100010B50121084600F0DBFA0021012000F09F
:10152000D7FA10BD2DE9F041024600250026002023
:1015300000230024002791F803C00CF00F0591F858
:1015400003C00CF0100CBCF1000F03D091F802C0E6
:101550004CEA050591F800C0BCF1000F31D01468C9
:1015600000202BE04FF0010C0CFA00F3B1F800C0A2
:101570000CEA03069E4220D183004FF00F0C0CFAB8
:1015800003F7BC4305FA03FC4CEA040491F803C0DA
:10159000BCF1280F06D14FF0010C0CFA00FCC2F888
:1015A00014C00AE091F803C0BCF1480F05D14FF018
:1015B000010C0CFA00FCC2F810C0401C0828D1D362
:1015C0001460B1F800C0BCF1FF0F34DD5468002096
:1015D0002EE000F1080C4FF0010808FA0CF3B1F806
:1015E00000C00CEA03069E4221D183004FF00F0C8D
:1015F0000CFA03F7BC4305FA03FC4CEA040491F827
:1016000003C0BCF1280F05D100F1080C08FA0CF852
:10161000C2F8148091F803C0BCF1480F07D100F163
:10162000080C4FF0010808FA0CF8C2F81080401CB2
:101630000828CED35460BDE8F0814FF6FF710180D9
:10164000022181700421C170704702460020936816
:101650000B400BB1012000E0002070470146886874
:1016600080B2704702460020D3680B400BB10120C6
:1016700000E0002070470146C86880B270470161F1
:101680007047416170470AB1016100E041617047F4
:10169000C16070474FF480320A4382618161826188
:1016A00082698269704702460020434B18684FF6F2
:1016B0008073184040EA021008433F4B186070479F
:1016C0003E49C8617047F0B50A4600230024002156
:1016D000002500F00046B6F1004F02D1364EF16908
:1016E00001E0354E7168C0F3034583B200F4401643
:1016F000B6F5401F08D121F070612F4E766826F0B4
:1017000070662D4F7E6012E000F48016B6F5801FE3
:1017100006D1032606FA05F4A14341F0706106E004
:10172000460D360103FA06F6B14341F0706122B16D
:10173000460D360103FA06F6314300F00046B6F1D5
:10174000004F02D11C4EF16101E01B4E7160F0BDF3
:1017500030B500228B071C0F0F2303FA04F2164B3F
:1017600008338C1053F824309343134C08348D10F5
:1017700044F8253023468C1053F824308C07240F6E
:1017800000FA04F423430C4C08348D1044F825303F
:1017900030BD0A49DC310860704700000008014094
:1017A000000C0140001001400014014000180140ED
:1017B000001C0140002001400000014000002042C8
:1017C000DF48006840F00100DD49086008464068D5
:1017D000DC490840DA49486008460068DA490840B0
:1017E000D74908600846006820F480200860084651
:1017F000406820F4FE0048604FF41F008860704786
:10180000CF49096821F48031CD4A11601146096839
:1018100021F480211160B0F5803F03D0B0F5802F16
:101820000ED106E0C649096841F48031C44A11600E
:1018300007E0C349096841F4A021C14A116000E0F2
:1018400000BF00BF704710B50146002200230020F2
:101850004A11012A02D1BA4C236806E0022A02D1B9
:10186000B74C236A01E0B64C636A01F01F02012401
:1018700094401C400CB1012000E0002010BD38B5A0
:10188000002000900024002500BF3120FFF7DBFF7F
:1018900005460098401C00900098B0F5A06F01D05C
:1018A000002DF2D03120FFF7CEFF08B1012400E077
:1018B0000024204638BD01460020A14A106820F0CF
:1018C000F80040EAC10010607047A0490860704706
:1018D000024600209A4B586820F47C1042EA01032B
:1018E0001843974B586070479849086670470146FF
:1018F0000020934A506820F003000843506070476E
:101900008F48406800F00C007047014600208C4A68
:10191000506820F0F00008435060704701460020F6
:10192000874A506820F4E0600843506070470146E1
:101930000020834A506820F4605040EAC1005060A3
:10194000704729B17E4A527A02437D4B5A7204E0B5
:101950007B4A527A82437A4B5A7270477B49D8311C
:101960000860704701460020754A506820F44040E6
:101970000843506070470021714A20321170704A4C
:1019800082F82010012802D004280AD104E00121A5
:101990006B4A2032117005E00521694A203211702E
:1019A00000E000BF00BF70476949086070476449A4
:1019B000096A0143624A1162704765494439086007
:1019C000704730B500210022002400235C4D6D6873
:1019D00005F00C0121B1042905D0082923D105E027
:1019E0005C4D056022E05B4D05601FE0544D6D6865
:1019F00005F47012524D6D6805F48034022505EB34
:101A000092421CB9544D554305600BE04C4D6D6836
:101A100005F400351DB1504D5543056002E04D4DB4
:101A20005543056002E04B4D056000BF00BF444DCB
:101A30006D6805F0F0010909484D6B5C0568DD40F3
:101A400045603F4D6D6805F4E061090A434D6B5CEC
:101A50004568DD4085603A4D6D6805F46051C90AFE
:101A60003E4D6B5C4568DD40C560354D6D6805F4E5
:101A70004041890B3A4D6B5CC568B5FBF3F50561D8
:101A800030BD29B12E4A526902432D4B5A6104E000
:101A90002B4A526982432A4B5A61704729B1284A1E
:101AA00092690243264B9A6104E0254A9269824377
:101AB000234B9A61704729B1214AD2690243204BD6
:101AC000DA6104E01E4AD26982431D4BDA61704735
:101AD00029B11B4AD2680243194BDA6004E0184A64
:101AE000D2688243164BDA60704729B1144A1269F2
:101AF0000243134B1A6104E0114A12698243104BEE
:101B00001A61704712494039086070470F49C8642C
:101B100070470B49C87170470948406A40F08070AF
:101B200007494862704701460020054A92680A400A
:101B30000AB1012000E00020704701498872704717
:101B4000001002400000FFF8FFFFF6FE00004242D6
:101B50008004424200127A0000093D008C010020FE
:101B60009C01002010B50446FE48844208D10121A2
:101B7000C014FFF7ADFF0021E014FFF7A9FFC4E098
:101B8000B4F1804F08D101210846FFF7AEFF0021D4
:101B90000120FFF7AAFFB8E0F348844208D10121F1
:101BA0000220FFF7A2FF00210220FFF79EFFACE01A
:101BB000EE48844208D101210420FFF796FF00215E
:101BC0000420FFF792FFA0E0E948844208D10121F8
:101BD0000820FFF78AFF00210820FFF786FF94E026
:101BE000E448844208D101211020FFF77EFF002144
:101BF0001020FFF77AFF88E0DF48844208D10121F6
:101C00002020FFF772FF00212020FFF76EFF7CE00D
:101C1000DA48844208D101214014FFF759FF00211E
:101C20006014FFF755FF70E0D548844209D10121C7
:101C3000C804FFF74DFF00214FF40020FFF748FFD5
:101C400063E0D048844209D101210805FFF740FF35
:101C500000214FF48010FFF73BFF56E0CA48844252
:101C600009D101214805FFF733FF00214FF400108F
:101C7000FFF72EFF49E0C548844208D101214020EA
:101C8000FFF733FF00214020FFF72FFF3DE0C04862
:101C9000844208D101218020FFF727FF0021802006
:101CA000FFF723FF31E0BB48844208D101218015B2
:101CB000FFF71BFF0021A015FFF717FF25E0B6482F
:101CC000844209D101210804FFF702FF00214FF4EB
:101CD0008030FFF7FDFE18E0B048844209D10121B1
:101CE0004804FFF7F5FE00214FF40030FFF7F0FE47
:101CF0000BE0AB48844208D101218804FFF7E8FEDD
:101D000000214FF48020FFF7E3FE10BD002202887F
:101D1000944B98420ED0994B98420BD0B0F1804F23
:101D200008D0914B984205D0904B984202D0904BEE
:101D3000984204D14FF68F731A404B881A438D4B4B
:101D4000984207D08C4B984204D04FF6FF431A407C
:101D5000CB881A4302808B8883850B880385814B4F
:101D600098420BD0854B984208D08B4B984205D0B7
:101D70008A4B984202D08A4B984201D10B7A038653
:101D800001238382704770B5002400220023058C54
:101D90004FF6FE7635400584028C8388048B4FF61F
:101DA0008F752C40B51E2C400D882C43751E2A4083
:101DB0000D892A434D882A436A4DA8420BD06F4DA6
:101DC000A84208D0744DA84205D0744DA84202D054
:101DD000734DA84213D14FF6F7752A404D892A4317
:101DE0004FF6FB752A408D882A434FF6FF652B403E
:101DF0004FF6FF552B408D892B43CD892B43838094
:101E00000483CD888586028470BD70B500240022CD
:101E10000023058C4FF6EF7635400584028C8388CD
:101E2000048B48F6FF752C404FF6FF452C400D887B
:101E30004FF6FF7606EA05252C434FF6DF752A405C
:101E40000D8906EA05152A434D8806EA05152A4339
:101E5000444DA84202D0494DA8421DD14FF67F758E
:101E60002A404D894FF6FF7606EA05152A434FF6BC
:101E7000BF752A408D8806EA05152A434FF6FF35BF
:101E80002B404FF2FF752B408D8906EA85052B43C9
:101E9000CD8906EA85052B4383800483CD88058799
:101EA000028470BD70B5002400220023058C4FF61B
:101EB000FF6635400584028C8388848B4FF68F75CE
:101EC0002C404FF6FC752C400D882C434FF6FF55E7
:101ED0002A400D894FF6FF7606EA05252A434D88EC
:101EE00006EA05252A431F4DA84202D0234DA842E9
:101EF0001DD14FF2FF752A404D894FF6FF7606EA55
:101F000005252A434FF6FF352A408D8806EA052528
:101F10002A434EF6FF752B404DF6FF752B408D89F9
:101F200006EA05152B43CD8906EA05152B43838068
:101F30008483CD888587028470BD70B5002200231C
:101F40000024058C4EF6FF7635400584038C84888A
:101F5000828B48F6FF752A404FF6FF452A400D88D0
:101F600020E00000002C0140000400400008004078
:101F7000000C0040001000400014004000340140FC
:101F8000004C014000500140005401400018004046
:101F9000001C00400020004000400140004401407F
:101FA000004801404FF6FF7606EA05252A434DF624
:101FB000FF752B400D8906EA05352B434D8806EA4F
:101FC00005352B43F94DA84202D0F94DA84208D15E
:101FD0004BF6FF752C408D894FF6FF7606EA851586
:101FE0002C438283CD88A0F84050038470BD828B3F
:101FF0004FF2FF331A408283828B4FF6FF7303EA5E
:1020000001231A4382837047F0B50C46154600221F
:1020100000210026078C4EF6FF7C07EA0C07078498
:10202000828B018C4FF6FF7707EA043640F6FF47B4
:102030003A404FF6FF7707EA05273A434FF6FF7716
:1020400007EA03373A43D94FB8420ED0D84FB842C7
:102050000BD0B0F1804F08D0D64FB84205D0D64F44
:10206000B84202D0D54FB84206D14DF6FF7739407D
:1020700046F48057394305E047F6FF57394044F4AA
:102080008057394382830184F0BD828B4FF6F3730E
:102090001A408283828B0A4382837047F0B50C46D4
:1020A0001546002200210026078C4FF6FF6C07EA38
:1020B0000C070784828B018C4FF6FF7707EA042612
:1020C0004FF60C773A404FF6FF7707EA03172F4396
:1020D0003A43B64FB8420ED0B54FB8420BD0B0F12C
:1020E000804F08D0B34FB84205D0B34FB84202D0AA
:1020F000B24FB84206D14FF6FF57394046F48077C9
:10210000394305E04FF2FF57394044F480773943B3
:1021100082830184F0BD028B4FF2FF331A400283A9
:10212000028B4FF6FF7303EA01231A4302837047C1
:10213000F0B50C461546002200210026078C4FF60C
:10214000EF7C07EA0C070784028B018C4FF6FF77C0
:1021500007EA041640F6FF473A404FF6FF7707EAD2
:1021600003373A434FF6FF7707EA05273A438F4F85
:10217000B8420ED08E4FB8420BD0B0F1804F08D08D
:102180008C4FB84205D08C4FB84202D08B4FB8422A
:1021900006D14FF6DF77394046F01007394305E0A6
:1021A0004FF65F77394044F01007394302830184CA
:1021B000F0BD028B4FF6F3731A400283028B0A4381
:1021C00002837047F0B50C46154600220021068CAC
:1021D0004FF6FE773E400684028B018C4FF60C765C
:1021E00032407E1C06EA03162E4332436F4EB04245
:1021F0000ED06F4EB0420BD0B0F1804F08D06D4E74
:10220000B04205D06C4EB04202D06C4EB04206D106
:102210004FF6FD76314044F00106314305E04FF6BC
:10222000F576314044F00106314302830184F0BD6C
:1022300070B505460C465D4885420ED05C48854227
:102240000BD0B5F1804F08D05A48854205D05A4886
:10225000854202D05948854200D100E000BF208865
:1022600050B92389A28861882846FFF7ABFFE1882F
:102270002846FFF79EFF25E0208804280AD12389FD
:10228000A28861882846FFF753FFE1882846FFF7B8
:1022900042FF17E0208808280AD12389A288618894
:1022A0002846FFF7FBFEE1882846FFF7EEFE09E02F
:1022B0002389A28861882846FFF7A6FEE188284680
:1022C000FFF795FE70BD2DE9F04105460C4600264E
:1022D0000127608808B9022600E00026A0880128AE
:1022E00001D1022700E001272088A0B92389A28814
:1022F00061882846FFF766FFE1882846FFF759FF07
:1023000023893A4631462846FFF712FFE1882846DE
:10231000FFF701FF13E02389A28861882846FFF7B1
:1023200007FFE1882846FFF7F6FE23893A46314643
:102330002846FFF747FFE1882846FFF73AFFBDE848
:10234000F0810A884B881A438B881A43CB881A433A
:102350000B891A434B891A438B891A43A0F84420EE
:1023600070474FF6FF71818000210180C18041805C
:10237000017270470021018041808180C18001810C
:1023800041818181C181704700210180418001210B
:1023900081800021C180018170470021018041803E
:1023A0008180C1800181418181817047002C014081
:1023B000003401400004004000080040000C0040D0
:1023C00021B1028842F00102028004E002884FF647
:1023D000FE731A400280704731B1B0F8442042F4D5
:1023E0000042A0F8442005E0B0F84420C2F30E02F9
:1023F000A0F8442070471AB183890B43838102E01F
:1024000083898B43838170478182704741EA02034D
:10241000A0F8483070471AB183890B43838102E0EA
:1024200083898B438381704701894FF6F87211408D
:10243000018170470A46002101894FF68F731940C8
:1024400011430181704730B504460D4629462046A8
:10245000FFF7F0FF208940F00700208130BD2DE913
:10246000F04104460D4616461F46602D06D13B46F8
:10247000012231462046FFF75BFE05E03B46012284
:1024800031462046FFF79EFE29462046FFF7D2FF41
:10249000208940F007002081BDE8F08130B50C466E
:1024A00000210189C9B24FF6FF7505EA03251543DE
:1024B00025432943018130BD2DE9F04105460E46F3
:1024C00017469846002443463A4631462846FFF7C9
:1024D000E5FF2C894FF6F870044044F007044FF6EE
:1024E0008F70044044F070042C81BDE8F081F0B599
:1024F00004460D4616461F463B46324629462046B0
:10250000FFF7CCFF208940F480402081F0BD018599
:10251000828270470A46002101884FF68F73194066
:10252000114301807047F0B50C4615461E46002148
:10253000002200230189028B038C4FF6F877394083
:1025400021434FF6FC473A4040F201173A434FF619
:10255000DD773B404FF6FF7707EA06172F433B43F3
:10256000018102830384F0BD0A460021018B4FF6EE
:102570008F7319401143018370470A460021018B74
:1025800048F6FF7319404FF6FF7303EA022319431D
:10259000018370470A460021818B4FF68F731940E3
:1025A0001143818370470A460021818B48F6FF73EF
:1025B00019404FF6FF7303EA0223194381837047E2
:1025C00021B1028842F08002028004E002884FF6C6
:1025D0007F731A400280704721B1828842F0040262
:1025E000828004E082884FF6FB731A408280704735
:1025F00021B1828842F00802828004E082884FF68E
:10260000F7731A408280704721B1828842F001023C
:10261000828004E082884FF6FE731A408280704701
:102620000A460021018B4FF6F773194011430183CD
:1026300070470A460021018B4FF2FF7319404FF695
:10264000FF7303EA02231943018370470A460021FE
:10265000818B4FF6F77319401143818370470A4607
:102660000021818B4FF2FF7319404FF6FF7303EA8D
:1026700002231943818370470A460021018B4FF6DC
:10268000FB7319401143018370470A460021018BF7
:102690004FF6FF3319404FF6FF7303EA0223194345
:1026A000018370470A460021818B4FF6FB73194066
:1026B0001143818370470A460021818B4FF6FF3317
:1026C00019404FF6FF7303EA0223194381837047D1
:1026D0000A460021018B4FF67F7319401143018395
:1026E00070470A460021018BC1F30E014FF6FF73BC
:1026F00003EA02231943018370470A460021818BB4
:102700004FF67F7319401143818370470A460021B9
:10271000818BC1F30E014FF6FF7303EA02231943C5
:10272000818370470A460021018C4FF6FD731940E2
:102730001143018470470A460021018C4FF6F7735C
:1027400019401143018470470A460021018C4FF65D
:10275000DF7319404FF6FF7303EA02131943018434
:1027600070470A460021018C4FF67F7319404FF6DF
:10277000FF7303EA02131943018470470A460021DC
:10278000018C4FF6FF5319404FF6FF7303EA022303
:102790001943018470470A460021018C4FF2FF73F0
:1027A00019404FF6FF7303EA02231943018470476F
:1027B0000A460021018C4DF6FF7319404FF6FF7356
:1027C00003EA023319430184704730B50023012422
:1027D0008C40A3B2048C9C430484048C02FA01F55F
:1027E000ADB22C43048430BD30B5002304248C40AA
:1027F000A3B2048C9C430484048C02FA01F5ADB2AC
:102800002C43048430BD70B50346002000241846D4
:10281000183001258D40ACB21D8CA5431D8409B133
:10282000082909D100EB6100056825F070050560F5
:102830000568154305600EE00D1FC5F34E052844DD
:10284000056825F4E045056005684FF6FF7606EA61
:1028500002263543056070BD21B1028842F00202B4
:10286000028004E002884FF6FD731A400280704730
:1028700021B1028842F00402028004E002884FF68F
:10288000FB731A400280704721B1828842F08002B7
:10289000828004E082884FF67F731A4082807047FE
:1028A00002884FF6F7731A40028002880A430280BA
:1028B000704782884FF68F731A40828082880A435D
:1028C0008280704702894FF6F8731A4002810289AC
:1028D0000A430281704702894FF67F731A400281D2
:1028E00002890A430281704781847047818570475D
:1028F000818670470187704781877047A0F8401034
:10290000704702884FF6FF431A40028002880A434C
:10291000028070470146888E70470146088F7047D5
:102920000146888F70470146B1F840007047014664
:10293000888C70470146088D704702460020138A34
:102940000B400BB1012000E000207047CA43028217
:10295000704730B50246002000230024158A05EA9E
:102960000103958905EA010413B10CB1012000E0CF
:10297000002030BDCA4302827047000010B50446F3
:10298000FB48844209D101218803FFF7A1F8002107
:102990004FF48040FFF79CF832E0F648844209D1BA
:1029A00001214804FFF7A1F800214FF40030FFF7A0
:1029B0009CF825E0F048844209D101218804FFF702
:1029C00094F800214FF48020FFF78FF818E0EB48CF
:1029D000844209D10121C804FFF787F800214FF490
:1029E0000020FFF782F80BE0E548844208D101217E
:1029F0000805FFF77AF800214FF48010FFF775F80B
:102A000010BD2DE9F04786B005460E460024A246CB
:102A100000BFA1460027B08900B100BF2F462C8A15
:102A20004CF6FF700440F08804432C82AC894EF6CB
:102A3000F3100440B0883189084371890843044386
:102A4000AC81AC8A4FF6FF400440B0890443AC82AD
:102A500001A8FEF7B6FFC648874202D1DDF810A0F4
:102A600001E0DDF80CA0A88900F4004040B10AEBB9
:102A7000CA0000EB0A1031684900B0FBF1F807E02A
:102A80000AEBCA0000EB0A1031688900B0FBF1F8CC
:102A90006420B8FBF0F004012009642101FB1089D7
:102AA000A88900F4004040B1322000EBC900B0FB1F
:102AB000F1F000F00700044308E0322000EB0910B9
:102AC0006421B0FBF1F000F00F0004432C8106B04C
:102AD000BDE8F0874FF41651016000218180C1806C
:102AE00001810C21418100218181704710B502468E
:102AF0000020108A4FF2FF0318400B884C882343B4
:102B00008C882343CC8823431843108210BD0021B6
:102B1000018041808180C180704721B1828942F467
:102B20000052828104E082894DF6FF731A4082814F
:102B30007047F0B50346002400260025002040F62B
:102B40006A17B94200D100BF1846C1F3421401F020
:102B50001F06012707FA06F5012C01D10C3004E00D
:102B6000022C01D1103000E014301AB107682F4355
:102B7000076002E00768AF430760F0BD1AB1838ABF
:102B80000B43838202E0838A8B4383827047028AED
:102B90004FF6F0731A400282028A0A43028270479B
:102BA00082894FF2FF731A40828182890A438281AF
:102BB000704721B1828942F00202828104E0828959
:102BC0004FF6FD731A4082817047028A4FF6DF7319
:102BD0001A400282028A0A430282704721B1028AA5
:102BE00042F48042028204E0028A4BF6FF731A40EC
:102BF00002827047C1F308028280704701468888CC
:102C0000C0F308007047818941F00101818170475C
:102C1000028BD2B20283028B42EA01220283704706
:102C2000028B02F47F420283028B0A4302837047C5
:102C300021B1828A42F02002828204E0828A4FF629
:102C4000DF731A408282704721B1828A42F01002FB
:102C5000828204E0828A4FF6EF731A4082827047C4
:102C600021B1828A42F00802828204E0828A4FF611
:102C7000F7731A408282704721B1828942F4004280
:102C8000828103E08289C2F30E028281704721B102
:102C9000828A42F40062828204E0828A4FF2FF73E9
:102CA0001A4082827047828A4FF6FB731A408282F2
:102CB000828A0A438282704721B1828A42F00202EC
:102CC000828204E0828A4FF6FD731A408282704746
:102CD00002460020B1F5007F00D100BF13880B40F1
:102CE0000BB1012000E00020704701F40072B2F542
:102CF000007F00D100BFCA430280704770B5024612
:102D0000002400230025002040F66A16B14200D1BD
:102D100000BFC1F3421501F01F03012606FA03F3B9
:102D2000012D02D19689334006E0022D02D1168A88
:102D3000334001E0968A33400C12012606FA04F46F
:102D40001688344013B10CB1012000E0002070BDA2
:102D500010B50022002340F66A14A14200D100BF42
:102D60000A1201249440A3B2DC43048010BD000089
:102D7000003801400044004000480040004C004042
:102D8000005000400948804709480047FEE7FEE739
:102D9000FEE7FEE7FEE7FEE7FEE7FEE7FEE7FEE70B
:102DA00004480549054A064B7047000003310008F6
:102DB000ED000008E0020020E0080020E004002010
:102DC000E004002010B56FF00400FEF72CFB58481B
:102DD00000685849B0FBF1F0574908700846007880
:102DE00000EB4001C1EBC0104FF6FF7101EAC000DB
:102DF0005249088010BD30B50146002200234FF033
:102E0000E024206900F0010454B100F480343CB99E
:102E100001234FF0E024A469474D2D7801FB1542B2
:102E2000454C24784C434FF0E0256C610024AC61A4
:102E30002C46246944F001042C6100BF4FF0E024CB
:102E4000206900F001041CB100F48034002CF5D09E
:102E50004FF0E024246924F001044FF0E0252C61B8
:102E60000024AC61012B07D1002A05DD2C466261EC
:102E7000246944F001042C6130BD30B501460020C6
:102E8000002200234FF0E024206900F0010454B137
:102E900000F480343CB901234FF0E024A469274DAD
:102EA0002D8801FB1542254C24884C434FF0E0252A
:102EB0006C610024AC612C46246944F001042C614F
:102EC00000BF4FF0E024206900F001041CB100F4C1
:102ED0008034002CF5D04FF0E024246924F0010464
:102EE0004FF0E0252C610024AC61012B07D1002AB2
:102EF00005DD2C466261246944F001042C6130BD7B
:102F000070B504464FF47A7094FBF0F694FBF0F140
:102F100000FB114503E04FF47A70FFF7AEFF30007D
:102F2000A6F10106F7D115B1A8B2FFF7A6FF70BD53
:102F3000A401002000127A00A0010020A2010020BC
:102F400010B54FF4A060FEF71FFA10BD014600BF98
:102F5000704710B586B00446012144F20400FEF724
:102F60009DFD2748FFF70AFD4FF40070ADF81400EF
:102F700003208DF8160018208DF8170005A92148A8
:102F8000FEF7D0FA4FF48060ADF8140004208DF8FD
:102F9000170005A91B48FEF7C5FA25208DF800008B
:102FA00003208DF801008DF8020001208DF8030048
:102FB0006846FEF7EEF901940020ADF80800ADF880
:102FC0000A00ADF80C00ADF810000C20ADF80E00B2
:102FD00001A90B48FFF715FD012240F225510848D1
:102FE000FFF7A7FD01210648FFF797FD06B010BDCA
:102FF00010B540F225510248FFF780FE10BD0000D9
:103000000038014000080140704700BFFEE700BFE4
:10301000FEE700BFFEE700BFFEE77047704770475E
:10302000704700000CB500200190009075480068C2
:1030300040F480307349086000BF7248006800F4B3
:10304000003000900198401C0190009818B9019838
:10305000B0F5A06FF1D16B48006800F4003010B1FA
:103060000120009001E0002000900098012843D149
:103070006548006840F01000634908600846006831
:1030800020F0030008600846006840F00200086075
:103090005C4840685B4948600846406848600846AC
:1030A000406840F4806048600846406820F47C1026
:1030B00048600846406840F4E810486008460068E8
:1030C00040F08070086000BF4E48006800F000705B
:1030D0000028F9D04B48406820F003004949486077
:1030E0000846406840F00200486000BF454840681C
:1030F00000F00C000828F9D10CBD10B5FFF792FFC5
:1031000010BD10B53F48006840F001003D4908601F
:10311000084640683D4908403A494860084600680A
:103120003B490840374908600846006820F4802081
:1031300008600846406820F4FE0048604FF41F0015
:103140008860FFF7DAFF4FF000603249086010BD79
:1031500010B50021002000222A4B5B6803F00C010F
:1031600021B1042906D0082928D107E02A4B2B4C8D
:10317000236027E0284B294C236023E0214B5B6828
:1031800003F470101F4B5B6803F48032022303EBDF
:10319000904022B9224B4343204C23600DE0194B51
:1031A0005B6803F4003323B11D4B43431B4C236086
:1031B00003E0194B4343194C236003E0164B174CB3
:1031C000236000BF00BF0F4B5B68C3F30313154CB4
:1031D000E15C124B1B68CB40104C236010BD0146D4
:1031E0004906084A926942F00102064B9A610E4A6A
:1031F000526822F0E0620C4B5A601A4652680A4349
:103200005A60704700100240002002400000FFF8A2
:10321000FFFFF6FE08ED00E000127A00A401002096
:1032200000093D00A801002000000140704710B5D2
:10323000431C02E010F8011B71B18107FAD14FF075
:10324000013202C88C1A8C4314EAC211F9D0C01A98
:103250000A0603D0C01E10BDC01A10BD0A0401D05A
:10326000801E10BD0902FCD0401E10BD10B5203AD2
:10327000C0F00B80B1E81850203AA0E81850B1E82F
:103280001850A0E81850BFF4F5AF5FEA027C24BFE5
:10329000B1E81850A0E8185044BF18C918C0BDE8DC
:1032A00010405FEA827C24BF51F8043B40F8043BA5
:1032B00008BF7047D20728BF31F8023B48BF11F85A
:1032C000012B28BF20F8023B48BF00F8012B7047B4
:1032D0004FF0013C50F8042B51F8043B9A4221D1A5
:1032E000A2EB0C03934313EACC1317D150F8042B31
:1032F00051F8043B9A4215D1A2EB0C03934313EA15
:10330000CC130BD150F8042B51F8043B9A4209D14D
:10331000A2EB0C03934313EACC13DBD04FF0000075
:10332000704700BFD01A01BAB1FA81F101F018015B
:1033300022FA01F0CB40C1F12001DBB2C0B2C01AC9
:103340002CFA01F3D11A914311EAC311E6D1704767
:103350007047704770477047754600F029F8AE46D1
:1033600005006946534620F00700854618B020B591
:10337000FFF716FDBDE820404FF000064FF00007B4
:103380004FF000084FF0000B21F00701AC46ACE80D
:10339000C009ACE8C009ACE8C009ACE8C0098D467A
:1033A00070470446AFF300802046FCF706FF00009C
:1033B000004870478002002021F00042A2F16052D4
:1033C000B2F5801F01F0004328BFD2F17F6C0BD90A
:1033D0005FEA001C43EAC20242EB507018BF70471C
:1033E00028BF20F001007047B2F5801FBCBF18460F
:1033F00070474FEA410C1CF5001F02D2084600F04E
:103400005ABC70B500F066FA00000089FFF7F6BFFD
:103410004FF00040A0F58000704700002DE9C0414A
:1034200030B4DFF8A0C23CEA111418BF3CEA131410
:1034300000F0EC8081EA03051CEA111444EAD5741B
:1034400018BF1CEA131500F0C780A4EB05044FF069
:10345000004545EAC12145EAC32341EA505143EA08
:10346000525304F17F74994204F500344FEAC020AE
:103470004FEAC22208BF904200F09C804FEA1365D9
:103480000FF24016765D4FEA134506FB05F7C7F1CC
:10349000807706FB07F74FEAD737A7FB036876422A
:1034A000C8F58038A7FB06CE38BFA8F1010807FB96
:1034B00008E64FF0000EA6FB028CE6FB03CEDCF123
:1034C000000CCEF1004E38BFAEF1010EA6FB0C5839
:1034D0004FF000074FF00005E6FB0E87A1FB08C682
:1034E000A0FB07CE16EB0E0645F10005E1FB0765D4
:1034F00015F1E04E7EBFA4F580345FEA46066D41CB
:1035000016F1800745F100054FEA17274FEA0666D6
:1035100047EA0567A6F1DE46B6F1805F4FEA15255A
:103520001FD9384624F0010C05EBC471BCF1FE6FC5
:1035300001EB0C1102D8F0BCBDE8008124425CBF55
:1035400001F5801E9EEAC47F02D4F0BCBDE8008174
:10355000244238D4F0BCA1F1C041BDE8004100F0E4
:1035600007BA4FEAD22242EA43524FEAD323A7FBDB
:1035700002864FEAD02040EA415007FB03661EEA6C
:103580000E0F4FEAD12105FB026658BFA6EB00568D
:10359000B6EB00564FEA520E4EEAC37E18EB0E0E03
:1035A00056EB530EBDD518EB02085E417F1C55F15A
:1035B0000005B6E74FF480154FF000074FF0000606
:1035C0004FF00008ADE7F0BC4FF0000001F1C04142
:1035D00001F00041BDE8008111EA0C1F0CEA13154F
:1035E00000D00CE013EA0C1F00F025804FF0000023
:1035F000F0BC81EA030101F00041BDE80081F0BCAC
:1036000081EA0301BDE8004100F0B2B9F0BCBDE8B9
:10361000004170B500F05EF9097EFC3E00F007B88D
:1036200081EA03014FF0000001F00041704781EA98
:10363000030100F09DB9F0BC4FF000002249BDE845
:1036400000417047FFFDFBF9F7F5F4F2F0EEEDEB0A
:10365000E9E8E6E4E3E1E0DEDDDBDAD8D7D5D4D390
:10366000D1D0CFCDCCCBCAC8C7C6C5C4C2C1C0BFDC
:10367000BEBDBCBBBAB9B8B7B6B5B4B3B2B1B0AFE2
:10368000AEADACABAAA9A8A8A7A6A5A4A3A3A2A1C6
:10369000A09F9F9E9D9C9C9B9A9999989797969581
:1036A00095949393929191908F8F8E8E8D8C8C8B1D
:1036B0008B8A8989888887878685858484838382A5
:1036C000828181800000FF070000F87F4FEA4103FC
:1036D0004FEA5353A3F58063D3F11E03C8BFD3F160
:1036E000210C0CDD4FF0004242EAC12242EA505266
:1036F00032FA03FC8CEAE17CACEBE1707047102BF2
:10370000C4BF0020704703F5787CBCF1FF3F04D0B4
:103710006FF0004282EA2100704770B500F0DAF8DD
:103720004992248000207047F2E710F0004248BF21
:103730004042B0FA80F310FA03F10AD0C3F11D033E
:1037400003F580634FEA415002EB035202EBD121B3
:1037500070474FF000007047B0FA80F310FA03F1A1
:103760000AD0C3F11D0303F580634FEA41504FEACD
:10377000035202EBD12170474FF000007047000068
:10378000DFF848C170B51CEA111E1EBF1CEA1315F4
:103790009EEA0C0F95EA0C0F00F06F8081EA03049B
:1037A00023EA4C134EEAD47E21EA4C1141F48011F5
:1037B00043F48013AE44A1FB024CA0FB0365AEF1C1
:1037C0007F7E361955EB0C05A1FB034C4CF1000331
:1037D000A0FB021C16EB0C06654153F100030942E5
:1037E00018BF46F0010613F4007F0BD14FEA0331F6
:1037F0004FEA0530340341EA155140EA16506FF0A4
:1038000003020AE04FEAC3214FEAC520F40241EA6D
:10381000555140EA56506FF0020202EB2E4201EB86
:10382000025585EACE710AD05FEA440C18BF24F035
:10383000004450F1000041F1000120EAD47040F250
:10384000FE7C624500D270BDA84214BF4FF0804498
:103850004FF04044002E08BF0024BEF1806FA8BF87
:10386000A1F1C041BDE8704080F282804FF00000BD
:1038700001F1C04101F0004170479EEA0C0F0CEAD3
:10388000131518BF95EA0C0F06D04FF0000081EA1F
:10389000030E0EF0004170BD00F01CF88900013EDF
:1038A00000F007B800F009B84FEA430C5FEA5C5C2F
:1038B00008D081EA030100F05BB84FEA410C5FEAEF
:1038C0005C5CF6D14FF00000014970470000FF0733
:1038D0000000F87F0EF1020E2EF0030E5EF8046B6E
:1038E000364205D4012A43EB030515F5001F12D813
:1038F000012841EB010C1CF5001F0CD80ED14FEA3A
:10390000D17C15F5001F0CEB4C0C0CF1020C08BF20
:103910004CEBD37C04E04FF0080C01E04FEAD37C81
:103920000CEB4C0526FA05F606F00706B6F1040C7A
:1039300006D20EEB860CBDE870404CF0010C6047DF
:10394000DFE80CF0090B02024FF000414FF00000DD
:10395000A1F5002170BD19461046012851EB010464
:1039600018BFD4F5001484BF002001F0004170BDE1
:103970000808A0F500114FEA3101704790EA010FE5
:1039800048BF81F0004100F1AC81421A3CBF801A6F
:1039900089184FEAD0524FF07F4C1CEA410FA2EB3E
:1039A000D15318BF9CEA026F00F03B804FF0004CEF
:1039B0004CEA00204CEA012121FA03FC10EB0C0C2C
:1039C0001ED202F1FF325FEA1C2040EBC25038BF2A
:1039D00070471CF07F0F4FEA400C18BFBCF17F4FBF
:1039E00038BF7047C3F12003994008BF20F00100A1
:1039F000BCF17F4F38BF7047A0F1C04000F05BB909
:103A00004FEA3C00000A40EBC25028BF1CF0FF0FF9
:103A10004FEA400CE6D018BFBCF17F4F38BF70476B
:103A2000EAE79CEA026F05D010EA5C0F08BF00F0DD
:103A30000040704710B500F0F8F800BF64FBBE3ED0
:103A4000401058BFC0F14040491058BFC1F140413B
:103A50008142EFF30080704741000B0ED3F19E02CC
:103A600008D950F400034FEA032323FA02F048BFB9
:103A70004042704710B500F0D8F800BF499224804A
:103A8000002070476FF0004282EA2000704700007B
:103A900010F0004148BF4042B0FA80F310FA03F240
:103AA000C3F19D030BD051EAC35101EB1220530621
:103AB00038BF704700F1010008BF20F001007047D7
:103AC00050EA010C00F113801CF5000F58BFBCF543
:103AD000000F01D48842704707D710F5000F58BF78
:103AE00011F5000F15D488427047894270471CF5C4
:103AF000000F04D5BCF5000FF7D5814270474FF099
:103B0000807C1CEB400F38BF1CEB410F01D281427F
:103B1000704710B500F089F8922449004FF000502A
:103B20004FF08051FFF78CBF4FF47F0C1CEAD0128E
:103B30001EBF1CEAD11392EA0C0F93EA0C0F00F09F
:103B4000478090EA010F48BF42F480724FF0004C6A
:103B50004CEA00204CEA012102EB0302A0FB011316
:103B6000A2F50002002918BF43F001035B0028BF43
:103B70004FEA330342EB22425FEA132C4CEBC25074
:103B80002EBFBCEB436FB2F57C0F70474FEA036C5E
:103B9000BCF1004F08BF20F00100B2F57C0F38BF28
:103BA00070470BD582F0FF0212F5803FC8BF704707
:103BB00000F1C040D8BF00F00040704700F5000C95
:103BC0005FEA4C0C48BF7047B0F1C04000F073B8DA
:103BD00090EA010F0CEAD11348BF42F480726245AB
:103BE00038BF634504D280EA010000F0004070470E
:103BF00010B500F01AF800BF8900013E00F007B8C8
:103C000000F009B85FEA410C5FEA1C6C08D080EA5A
:103C1000010000F050B85FEA400C5FEA1C6CF6D17E
:103C20004FF00040A0F5800070470EF1020E2EF01C
:103C3000030E5EF8044B244204D44FEA4102B2F171
:103C40007F4F11D84FEA4003B3F17F4F0CD80ED10C
:103C50004FEAD07CB2F17F4F0CEB4C0C0CF1020C14
:103C600008BF4CEBD17C04E04FF0080C01E04FEAB8
:103C7000D17C0CEB4C0324FA03F404F00704B4F1F8
:103C8000040C06D20EEB840CBDE810404CF0010C85
:103C90006047DFE80CF0070802024FF00040A0F593
:103CA000800010BD0846420018BFD2F1807288BF64
:103CB00000F0004010BDFF2141EAD050C005704720
:103CC00080F0004090EA010F7FF55FAE81F0004187
:103CD00000F007B890EA010F48BF81F000413FF5BE
:103CE00054AE421A04D882F00042A0EB0200114404
:103CF0004FEAD0524FF07F4C1CEA410FA2EBD15358
:103D000018BF9CEA026F4AD04FF0004C4CEA0020EA
:103D10004CEA012121FA03FCB0EB0C0C0FD412F099
:103D2000FE0F36D05FEA4C001DD5001240EBC250AA
:103D300038BF70471CF03F0F18BF70470BE0A2F16F
:103D400001025FEA1C2040EBC25038BF70471CF0F4
:103D50007F0F18BF7047C3F12003994014BF401E66
:103D600020F00100704780084FEA122308BF704717
:103D7000B0FA80FCA2EB0C02CCF1280C60FA0CF03B
:103D800093EA122F04BF00EBC25070474FEAC37092
:103D90007047130A5FEADC1008BF7047F6E79CEA39
:103DA000026F04D010EA5C0F08BF0020704710B506
:103DB000FFF73BFF40DFF63E81F000407047000018
:103DC000000000000000002F0000000007000700B6
:103DD00000147F147F1400242A7F2A1200626408D2
:103DE000132300364955225000000503000000004F
:103DF0001C224100000041221C000014083E08144F
:103E00000008083E0808000000A06000000808083C
:103E10000808000060600000002010080402003E56
:103E20005149453E0000427F4000004261514946F1
:103E3000002141454B31001814127F1000274545E1
:103E40004539003C4A4949300001710905030036F3
:103E50004949493600064949291E00003636000006
:103E6000000056360000000814224100001414140B
:103E70001414000041221408000201510906003206
:103E80004959513E007C1211127C007F4949493644
:103E9000003E41414122007F4141221C007F4949AF
:103EA0004941007F09090901003E4149497A007FE3
:103EB0000808087F0000417F4100002040413F0189
:103EC000007F08142241007F40404040007F020CE8
:103ED000027F007F0408107F003E4141413E007F89
:103EE00009090906003E4151215E007F0919294652
:103EF0000046494949310001017F0101003F40402E
:103F0000403F001F2040201F003F4038403F0063DB
:103F100014081463000708700807006151494543FD
:103F200000007F41410000552A552A5500004141BB
:103F30007F000004020102040040404040400000B5
:103F400001020400002054545478007F484444384F
:103F500000384444442000384444487F00385454D6
:103F6000541800087E0901020018A4A4A47C007F54
:103F7000080404780000447D4000004080847D00F7
:103F8000007F102844000000417F4000007C04189E
:103F90000478007C0804047800384444443800FC69
:103FA000242424180018242418FC007C0804040885
:103FB00000485454542000043F444020003C4040FA
:103FC000207C001C2040201C003C4030403C004431
:103FD00028102844001CA0A0A07C004464544C4439
:103FE0001414141414140000000000000000000059
:103FF000000000000000000000F8000000000000C9
:1040000000333000000000100C06100C0600000009
:1040100000000000000040C07840C0784000043F2D
:1040200004043F040400007088FC083000000018FD
:1040300020FF211E0000F008F000E0180000002121
:104040001C031E211E0000F00888700000001E21C5
:1040500023241927211010160E0000000000000074
:10406000000000000000000000E018040200000052
:1040700000071820400000020418E0000000004083
:10408000201807000000404080F0804040000202FD
:10409000010F01020200000000F000000000010119
:1040A000011F01010100000000000000000080B0BD
:1040B000700000000000000000000000000000018F
:1040C00001010101010100000000000000000030BA
:1040D0003000000000000000000080601804006054
:1040E00018060100000000E010080810E000000FB2
:1040F000102020100F00001010F800000000002019
:10410000203F202000000070080808887000003060
:104110002824222130000030088888483000001808
:10412000202020110E000000C02010F80000000721
:104130000424243F240000F8088888080800001997
:10414000212020110E0000E0108888180000000FC8
:10415000112020110E0000380808C838080000009F
:10416000003F000000000070880808887000001CF4
:10417000222121221C0000E010080810E0000000AD
:10418000312222110F00000000C0C000000000001A
:10419000003030000000000000800000000000003F
:1041A0008060000000000000804020100800000136
:1041B00002040810200040404040404040000404F9
:1041C00004040404040000081020408000000020C3
:1041D000100804020100007048080808F000000000
:1041E000003036010000C030C828E810E000071891
:1041F000272423140B000000C038E0000000203CFE
:1042000023020227382008F8888888700000203FA1
:10421000202020110E00C0300808080838000718B8
:1042200020202010080008F808080810E000203FAF
:10423000202020100F0008F88888E8081000203F90
:1042400020202320180008F88888E8081000203F64
:10425000200003000000C0300808083800000718DC
:104260002020221E020008F808000008F808203F5D
:10427000210101213F20000808F808080000002063
:10428000203F2020000000000808F8080800C08037
:1042900080807F00000008F888C028180800203FB0
:1042A00020012638200008F8080000000000203F08
:1042B00020202020300008F8F800F8F80800203FFF
:1042C000003F003F200008F830C00008F808203FF9
:1042D000200007183F00E01008080810E0000F1049
:1042E000202020100F0008F808080808F000203FE0
:1042F000210101010000E01008080810E0000F187B
:10430000242438504F0008F8888888887000203F9F
:104310002000030C3020007088080808380000389E
:10432000202121221C00180808F8080818000000A5
:10433000203F2000000008F808000008F808001FCF
:10434000202020201F000878880000C838080000BE
:1043500007380E010000F80800F80008F800033CD8
:104360000700073C030008186880806818082030A0
:104370002C03032C30200838C800C838080000007F
:10438000203F2000000010080808C8380800203826
:10439000262120201800000000FE0202020000007A
:1043A000007F40404000000C30C0000000000000D2
:1043B00000010638C00000020202FE0000000040BA
:1043C00040407F00000000000402020204000000E0
:1043D00000000000000000000000000000008080DD
:1043E00080808080808000020204000000000000C5
:1043F00000000000000000008080808000000019A4
:10440000242222223F2008F8008080000000003F84
:10441000112020110E000000008080800000000E9E
:10442000112020201100000000808088F800000E7C
:10443000112020103F200000808080800000001F9D
:10444000222222221300008080F088888818002011
:10445000203F202000000000808080808000006BD2
:1044600094949493600008F8008080800000203FBE
:10447000210000203F2000809898000000000020CC
:10448000203F20200000000000809898000000C01D
:104490008080807F000008F8000080808000203F3E
:1044A00024022D302000000808F800000000002041
:1044B000203F202000008080808080808000203F7E
:1044C00020003F20003F8080008080800000203F4F
:1044D000210000203F200000808080800000001F1D
:1044E000202020201F00808000808000000080FFAE
:1044F000A12020110E000000008080808000000EAE
:10450000112020A0FF8080808000808080002020FB
:104510003F21200001000000808080808000003367
:10452000242424241900008080E080800000000002
:10453000001F202000008080000000808000001FFD
:10454000202020103F20808080000080808000019B
:104550000E300806010080800080008080800F30CF
:104560000C030C300F000080800080808000002051
:10457000312E0E312000808080000080808080817C
:104580008E701806010000808080808080000021ED
:10459000302C2221300000000000807C020200004C
:1045A0000000003F404000000000FF00000000004D
:1045B0000000FF0000000002027C800000000040BC
:1045C000403F000000000006010102020404000058
:1045D00000000000000000004163630000000000D4
:1045E0000000446563000000000000005374700088
:1045F0000000000000004C67740000000000000094
:10460000466F72776172640000004261636B77618C
:10461000726400004C65667400000000000052697E
:104620006768740000000000484600080000002091
:10463000B8010000280100081C470008B80100204C
:10464000280700008401000862FA180CFE225A862E
:10465000088868180FE808010112000F11FF04080C
:104660000720110D41817F0105093010085E50506F
:104670005F5050DE0515FE0202FE20097E42222216
:104680001293601F05113F40407800101282BAAAB1
:10469000AABA82BE8220180FC8082818171E121244
:1046A0005E807F00081180601C031C60804A20012E
:1046B0005AFF080111100880804020100C030F10D1
:1046C000030C102040804019A15A920104129E80D0
:1046D000E01A040128080C34040444847F0B0111FF
:1046E000151060028C080A120CA4A4A5E6A4A4A4C8
:1046F0000C40137E01080912804F2A0A0F0A2A4F24
:104700007F4142402D0102030404500906070809B5
:0C471000020406087BA24A73691C00002A
:04000005080000ED02
:00000001FF
