:020000040800F2
:10000000E008002079280008092B00080B2B0008C5
:100010000F2B0008132B0008172B0008000000000E
:100020000000000000000000000000001B2B000882
:100030001D2B0008000000001F2B0008212B0008CA
:1000400093280008932800089328000893280008A4
:100050009328000893280008932800089328000894
:100060009328000893280008932800089328000884
:100070009328000893280008932800089328000874
:100080009328000893280008932800089328000864
:10009000932800089328000893280008FD01000811
:1000A0009328000893280008932800089328000844
:1000B0002F020008070200081D020008932800080C
:1000C0009328000893280008932800089328000824
:1000D00093280008F12A0008C5020008470200081A
:1000E00093280008932800089328000800F002F8DD
:1000F00000F05AF80AA090E8000C82448344AAF168
:100100000107DA4501D100F04FF8AFF2090EBAE865
:100110000F0013F0010F18BFFB1A43F0010318473B
:1001200090390000B03900000A444FF0000C10F87C
:10013000013B13F0070408BF10F8014B1D1108BF65
:1001400010F8015B641E05D010F8016B641E01F805
:10015000016BF9D113F0080F1EBF10F8014BAD1C55
:100160000C1B09D16D1E58BF01F801CBFAD505E073
:1001700014F8016B01F8016B6D1EF9D59142D6D3CD
:10018000704700000023002400250026103A28BFF5
:1001900078C1FBD8520728BF30C148BF0B607047F9
:1001A0001FB51FBD10B510BD02F028FE1146FFF7A8
:1001B000F7FF00F008F802F046FE03B4FFF7F2FF85
:1001C00003BC02F037FC00F006F800F013F801E081
:1001D00000F012F8FCE710B5012002F080FD02F0FB
:1001E0006BFB00F0D5F800F0A5F800F0CDF800F0BA
:1001F000CDF810BD704770477047704710B520208C
:1002000000F0A1FE10BD10B50121414802F01BF91C
:1002100018B101213E4802F027F910BD3D48008881
:100220003C48008820F001003A49088070474FF0B0
:100230008040008A4FF08040008A20F001004FF09B
:1002400080410882704710B540F22551324802F0D3
:10025000CFFA20B3304802F04BFAC4B22F480088DE
:1002600000F40040D8B92D48008800F4804070B1F7
:100270000A2C03D000202949088022E02748008862
:1002800040F400402549088000F097F819E00D2C53
:1002900006D12248008840F480402049088010E0C0
:1002A0001E480088C0F30D001D490C541B480088EF
:1002B000401C1A49088008460088C72801DD002034
:1002C000088010BD10B540F22551164802F090FA92
:1002D000E0B11548006828B9124802F009FA13493C
:1002E000087008E010480068012804D10D4802F0A9
:1002F000FFF90F4908700C480068401C0A49086063
:1003000008460068022801D10020086010BD0000E6
:100310000004004010080040004800400000002099
:10032000B40100200044004004000020020000202E
:1003300003000020704710B50C2311A200210846CD
:1003400000F0C5F910BD2DE9F04104460D461646F2
:100350001F463B4632462946204600F0C6FBBDE814
:10036000F08110B50748006838B9142002F0FFFA90
:100370000448006808B9012010BD0020FCE7000017
:100380004F4B0000248121427047704770477047EF
:100390007047000010B50446032318224FF4806113
:1003A000124800F011FC04225102104800F044FCF5
:1003B00021460F4800F082FC10BD10B500200D4909
:1003C0000988C1F30D010C4A50540CA1104602F0EB
:1003D000CDFC38B90B48006808B9012000E00020C6
:1003E0000849086000200349088010BD000C014046
:1003F0000048004000000020B40100205455524E37
:1004000000000000B001214270B504460E4626B13E
:100410002021FE4800F0ADFE03E02021FB4800F063
:10042000AAFE002519E04FF48071F84800F0A3FE01
:1004300004F0800020B18021F44800F09AFE03E02F
:100440008021F24800F097FE4FF48071EF4800F0F1
:1004500090FE6006040E681CC5B2082DE3DB202167
:10046000EA4800F086FE70BD70B504460D4605F101
:10047000B001C8B20021FFF7C7FF102141EA1410F4
:100480000021FFF7C1FF04F00F0141F0010000213E
:10049000FFF7BAFF70BD10B500218D20FFF7B4FF44
:1004A00000211420FFF7B0FF0021AF20FFF7ACFFC1
:1004B00010BD10B500218D20FFF7A6FF00211020F0
:1004C000FFF7A2FF0021AE20FFF79EFF10BD70B521
:1004D000002419E004F1B001C8B20021FFF794FF35
:1004E00000210846FFF790FF00211020FFF78CFF46
:1004F000002505E001210020FFF786FF681CC5B23A
:10050000802DF7DB601CC4B2082CE3DB70BD2DE945
:10051000F04707460E469046994600250024A8F16C
:100520002000C5B27F2F02DD0027B01CC6B2B9F192
:10053000100F24D131463846FFF796FF002408E01B
:1005400004EB0511B24A505C0121FFF75DFF601C0E
:10055000C4B2082CF4DB701CC1B23846FFF784FF2C
:10056000002409E004EB05110831A94A505C01217F
:10057000FFF74AFF601CC4B2082CF3DB12E03146DF
:100580003846FFF771FF00240AE005EB4501A14A58
:1005900002EB4101085D0121FFF736FF601CC4B288
:1005A000062CF2DBBDE8F08710B50246012000E022
:1005B00050430B00A1F10104E1B2F9D110BD2DE9C6
:1005C000FF5F074691461E460E9D4FF0000A00242D
:1005D00035E0301B401EC1B20A20FFF7E5FFB9FB32
:1005E000F0F00A21B0FBF1F201FB1208BAF1000FA2
:1005F00014D1701EA04211DDB8F1000F0CD1AB4632
:1006000005EBDB71491001FB0471C8B22B462022B7
:100610000199FFF77CFF10E04FF0010AAB4605EBB4
:10062000DB71491001FB0471C8B208F13001CAB294
:100630002B460199FFF76BFF00BF601CC4B2B442A8
:10064000C7DBBDE8FF9F2DE9FF5F074691461E46C9
:100650000E9D4FF0000A002435E0301B401EC1B251
:100660000A20FFF7A1FFB9FBF0F00A21B0FBF1F27D
:1006700001FB1208BAF1000F14D1701EA04211DD67
:10068000B8F1000F0CD1AB4605EBDB71491001FB53
:100690000471C8B22B4630220199FFF738FF10E0F1
:1006A0004FF0010AAB4605EBDB71491001FB047109
:1006B000C8B208F13001CAB22B460199FFF727FFF3
:1006C00000BF601CC4B2B442C7DBBDE8FF9F2DE988
:1006D000F04104460F461546984600260FE0AA5DF5
:1006E000434639462046FFF712FF04F10800C4B222
:1006F000782C02DD0024B81CC7B2701CC6B2A85DFD
:100700000028ECD1BDE8F0812DE9F04180460E468D
:100710001546002731464046FFF7A6FE00240AE0B2
:100720003D4A02EB8511085D0121FFF76DFE781C43
:10073000C7B2601CC4B2102CF2DB701CC1B24046C0
:10074000FFF792FE00240CE06900491C324A02EBDC
:100750004111085D0121FFF757FE781CC7B2601CEC
:10076000C4B2102CF0DBBDE8F0812DE9F05F064645
:100770000F4690461C46DDF828A04FF0000BE1170D
:1007800004EB5171C910A4EBC10131B92046E11746
:1007900004EB5171C1F3C70506E02046E11704EBF5
:1007A0005171C910491CCDB23D4615E0294630466D
:1007B000FFF75AFEB1460BE059460BF1010B1AF850
:1007C00001000121FFF720FE09F1010000F0FF09FF
:1007D000C145F1DB681CC5B2A542E7DBBDE8F09F6F
:1007E00008B50121082000F0D3FE4FF4F070ADF8F9
:1007F000000010208DF8030003208DF802006946E8
:10080000024800F009FC4FF4F07107E0000C0140D1
:10081000BE34000896320008080000209F4800F00F
:10082000A8FC40219D4800F0A4FC642002F09FF841
:1008300040219A4800F09FFCC82002F098F840211F
:10084000964800F096FC0021AE20FFF7DDFD002168
:100850000846FFF7D9FD00211020FFF7D5FD002144
:100860004020FFF7D1FD00218120FFF7CDFD0021C1
:10087000CF20FFF7C9FD0021A120FFF7C5FD002112
:10088000C820FFF7C1FD0021A620FFF7BDFD002114
:10089000A820FFF7B9FD00213F20FFF7B5FD00219B
:1008A000D320FFF7B1FD00210846FFF7ADFD002181
:1008B000D520FFF7A9FD00218020FFF7A5FD00212D
:1008C000D920FFF7A1FD0021F120FFF79DFD0021B8
:1008D000DA20FFF799FD00211220FFF795FD002196
:1008E000DB20FFF791FD00214020FFF78DFD002167
:1008F0002020FFF789FD00210220FFF785FD002160
:100900008D20FFF781FD00211420FFF77DFD0021E0
:10091000A420FFF779FD0021A620FFF775FD002137
:10092000AF20FFF771FD0021AF20FFF76DFDFFF74E
:10093000CEFD00210846FFF797FD08BDF8B5044637
:100940000E4615461F46002D10DA0C2354A23146E0
:100950002046FFF7BCFE0C2004F108010090C8B24D
:100960003B466A423146FFF72AFE0FE00C234DA2B8
:1009700031462046FFF7ABFE0C2004F10801009041
:10098000C8B23B462A463146FFF719FEF8BD2DE9AD
:10099000F84F0546894614461E460A9F204602F037
:1009A000C7FA82463346524649462846FFF7C6FFF5
:1009B000204602F0BDFA834602F0D6FA824621466E
:1009C00002F0EAFB04464FF0000806E036492046F4
:1009D00002F016FB044608F10108B845F6DB002FCB
:1009E00008DD711C05EBC101C8B20C232FA24946DA
:1009F000FFF76DFE0021204602F0CEFA01D284F00E
:100A00000044204602F094FA82460C20B11C05EB0B
:100A1000C1010090C8B23B4652464946FFF713FE5B
:100A2000BDE8F88F2DE9F04704460E461746984674
:100A3000089D284602F07BF981460C232A46314660
:100A40002046FFF744FE082101FB0941C8B2434696
:100A50003A463146FFF772FFBDE8F0872DE9F84FBF
:100A600005460C4616461F46DDE90A89284602F06F
:100A70005EF982460C232A4631462046FFF727FEC0
:100A8000082101FB0A41C8B243463A463146CDF837
:100A90000090FFF77CFFBDE8F88F0000000C0140DC
:100AA0002D0000002B000000000020412E0000005F
:100AB00030B502460B464FF6FF70002112E0555C40
:100AC000684000240AE000F0010525B14AF2010562
:100AD00085EA600000E04010651CECB2082CF2DBF7
:100AE0004D1CE9B29942EADB30BD2DE9F0438FB0ED
:100AF00006460F46904699460020079008900990B8
:100B00000A90039004900590069000900190029046
:100B100000250B960C97CDF83480CDF83890002442
:100B20000FE00BA951F8240002F002FA07A941F8DE
:100B3000240007A850F8240003A941F82400601CF1
:100B4000C4B2042CEDDB002410E003A810F824004C
:100B50000DF8140003A830F82400C0F30720012189
:100B600001EB44010DF80100601CC4B2042CECDB65
:100B700008216846FFF79CFF05462846E91705EB64
:100B800011610912A5EB0121C9B28DF80810E9170E
:100B900005EB1161090A8DF8091000240DE000BF72
:100BA0000848008800F040000028F9D01DF8040033
:100BB0000449091D0880601CC4B20A2CEFDB0FB089
:100BC000BDE8F083003801402DE9F84304460E46A5
:100BD000174698463248844201D104251CE031482A
:100BE000844201D1082517E02F48844201D1102505
:100BF00012E02E48844201D120250DE02C48844289
:100C000001D1402508E02B48844201D1802503E032
:100C10002948844200D185150121284600F0B8FCFE
:100C2000ADF800608DF803708DF8028069462046AB
:100C300000F0F2F9BDE8F883F8B504460E46174611
:100C40001748844201D104251CE01648844201D192
:100C5000082517E01448844201D1102512E01348FA
:100C6000844201D120250DE01148844201D1402564
:100C700008E01048844201D1802503E00E488442F8
:100C800000D185150121284600F082FCADF80060F6
:100C90008DF803706946204600F0BEF9F8BD0000EB
:100CA00000080140000C0140001001400014014008
:100CB00000180140001C01400020014070B586B0C2
:100CC00004460E462348844205D10121880300F0E2
:100CD0005FFC252510E02048844205D1012148040D
:100CE00000F063FC262507E01C48844204D1012162
:100CF000880400F05AFC2725204601F0B9FB8DF846
:100D0000045003208DF805008DF8060001208DF8B1
:100D1000070001A800F029F802960020ADF80C00A9
:100D2000ADF80E00ADF81000ADF814000C20ADF8D1
:100D3000120002A9204601F0DEFB012240F22551FB
:100D4000204601F070FC0121204601F060FC06B055
:100D500070BD0000003801400044004000480040E1
:100D600031490143314A1160704770B500210023B9
:100D70000F22C47804B32D4C246804F4E064C4F555
:100D8000E064210AC1F10403CA40447804FA03F183
:100D90008478144021430901254C0678A155047834
:100DA00004F01F050124AC4005786D11AD0005F17C
:100DB000E025C5F8004109E0047804F01F0501248E
:100DC000AC401C4D0678761145F8264070BD1A4A95
:100DD0000A400243154B1B1F1A60704739B1134A72
:100DE000121D12680243114B1B1D1A6006E00F4AC8
:100DF000121D126882430D4B1B1D1A607047042898
:100E000008D14FF0E021096941F004014FF0E022E0
:100E1000116107E04FF0E021096921F004014FF072
:100E2000E0221161704700000000FA050CED00E0BF
:100E300000E400E080E100E080FFFF1F0020444963
:100E40000860091D0860091D0860091D0860414807
:100E50003F4914310860704700213D498279002ADA
:100E60003AD00A46126803689A430B461A600A1D74
:100E7000126803689A430B1D1A60027911440A68CC
:100E800003681A430A60324A0832126803689A43B8
:100E90002F4B08331A601A1D126803689A432C4BB3
:100EA0000C331A604279102A0ED11A1F1268036897
:100EB0001A43274B08331A601A1D126803681A4335
:100EC000234B0C331A600DE02149427911440A6822
:100ED00003681A430A6005E0027911440A6803684E
:100EE0009A430A6070470021016001710C21417131
:100EF0000021817170471649103109680143144A75
:100F000010321160704701460020114A14321268F5
:100F10000A400AB1012000E0002070470C4914315A
:100F200008607047014600200022094B1B6803EA55
:100F30000102074B14331B680B4013B10AB10120A7
:100F400000E000207047024914310860704700003B
:100F500000040140FFFF0F0010B50446CC48844256
:100F600008D10121042000F02DFB0021042000F015
:100F700029FB46E0C748844208D10121082000F03F
:100F800021FB0021082000F01DFB3AE0C24884420A
:100F900008D10121102000F015FB0021102000F0E5
:100FA00011FB2EE0BD48844208D10121202000F031
:100FB00009FB0021202000F005FB22E0B848844214
:100FC00008D10121402000F0FDFA0021402000F06E
:100FD000F9FA16E0B348844208D10121802000F0DC
:100FE000F1FA0021802000F0EDFA0AE0AE488442D8
:100FF00007D10121801500F0E5FA0021A01500F0CD
:10100000E1FA10BD10B50121084600F0DBFA00211D
:10101000012000F0D7FA10BD2DE9F041024600256D
:101020000026002000230024002791F803C00CF0C4
:101030000F0591F803C00CF0100CBCF1000F03D0A9
:1010400091F802C04CEA050591F800C0BCF1000F10
:1010500031D0146800202BE04FF0010C0CFA00F3A3
:10106000B1F800C00CEA03069E4220D183004FF085
:101070000F0C0CFA03F7BC4305FA03FC4CEA04041A
:1010800091F803C0BCF1280F06D14FF0010C0CFA07
:1010900000FCC2F814C00AE091F803C0BCF1480F8C
:1010A00005D14FF0010C0CFA00FCC2F810C0401C36
:1010B0000828D1D31460B1F800C0BCF1FF0F34DDB3
:1010C000546800202EE000F1080C4FF0010808FAE7
:1010D0000CF3B1F800C00CEA03069E4221D1830054
:1010E0004FF00F0C0CFA03F7BC4305FA03FC4CEA73
:1010F000040491F803C0BCF1280F05D100F1080CDD
:1011000008FA0CF8C2F8148091F803C0BCF1480F3B
:1011100007D100F1080C4FF0010808FA0CF8C2F8EA
:101120001080401C0828CED35460BDE8F0814FF6F3
:10113000FF710180022181700421C1707047024655
:10114000002093680B400BB1012000E000207047A5
:101150000146886880B2704702460020D3680B4081
:101160000BB1012000E0002070470146C86880B242
:10117000704701617047416170470AB1016100E049
:1011800041617047C16070474FF480320A43826109
:101190008161826182698269704702460020434B07
:1011A00018684FF68073184040EA021008433F4B1E
:1011B000186070473E49C8617047F0B50A46002381
:1011C00000240021002500F00046B6F1004F02D1B6
:1011D000364EF16901E0354E7168C0F3034583B2C4
:1011E00000F44016B6F5401F08D121F070612F4E73
:1011F000766826F070662D4F7E6012E000F480164F
:10120000B6F5801F06D1032606FA05F4A14341F086
:10121000706106E0460D360103FA06F6B14341F06F
:10122000706122B1460D360103FA06F6314300F033
:101230000046B6F1004F02D11C4EF16101E01B4E99
:101240007160F0BD30B500228B071C0F0F2303FA2D
:1012500004F2164B08338C1053F824309343134C8C
:1012600008348D1044F8253023468C1053F8243070
:101270008C07240F00FA04F423430C4C08348D101F
:1012800044F8253030BD0A49DC3108607047000061
:1012900000080140000C0140001001400014014012
:1012A00000180140001C01400020014000000140E6
:1012B00000002042DF48006840F00100DD4908607E
:1012C00008464068DC490840DA494860084600683A
:1012D000DA490840D74908600846006820F48020B1
:1012E00008600846406820F4FE0048604FF41F0084
:1012F00088607047CF49096821F48031CD4A116078
:101300001146096821F480211160B0F5803F03D0B7
:10131000B0F5802F0ED106E0C649096841F480314E
:10132000C44A116007E0C349096841F4A021C14AD9
:10133000116000E000BF00BF704710B501460022F9
:10134000002300204A11012A02D1BA4C236806E08A
:10135000022A02D1B74C236A01E0B64C636A01F05D
:101360001F02012494401C400CB1012000E0002029
:1013700010BD38B5002000900024002500BF3120AA
:10138000FFF7DBFF05460098401C00900098B0F581
:10139000A06F01D0002DF2D03120FFF7CEFF08B1B1
:1013A000012400E00024204638BD01460020A14A67
:1013B000106820F0F80040EAC10010607047A049B2
:1013C00008607047024600209A4B586820F47C1051
:1013D00042EA01031843974B5860704798490866E2
:1013E000704701460020934A506820F003000843EC
:1013F000506070478F48406800F00C00704701460D
:1014000000208C4A506820F0F0000843506070477C
:1014100001460020874A506820F4E060084350608D
:10142000704701460020834A506820F4605040EA2B
:10143000C1005060704729B17E4A527A02437D4B09
:101440005A7204E07B4A527A82437A4B5A7270474E
:101450007B49D8310860704701460020754A5068C2
:1014600020F440400843506070470021714A203208
:101470001170704A82F82010012802D004280AD185
:1014800004E001216B4A2032117005E00521694A10
:101490002032117000E000BF00BF7047694908604A
:1014A00070476449096A0143624A1162704765499D
:1014B00044390860704730B5002100220024002321
:1014C0005C4D6D6805F00C0121B1042905D0082997
:1014D00023D105E05C4D056022E05B4D05601FE017
:1014E000544D6D6805F47012524D6D6805F48034EA
:1014F000022505EB92421CB9544D554305600BE0A3
:101500004C4D6D6805F400351DB1504D55430560D7
:1015100002E04D4D5543056002E04B4D056000BFB4
:1015200000BF444D6D6805F0F0010909484D6B5C42
:101530000568DD4045603F4D6D6805F4E061090ACE
:10154000434D6B5C4568DD4085603A4D6D6805F440
:101550006051C90A3E4D6B5C4568DD40C560354D44
:101560006D6805F44041890B3A4D6B5CC568B5FB6D
:10157000F3F5056130BD29B12E4A526902432D4B66
:101580005A6104E02B4A526982432A4B5A617047E0
:1015900029B1284A92690243264B9A6104E0254A00
:1015A00092698243234B9A61704729B1214AD269DB
:1015B0000243204BDA6104E01E4AD26982431D4B8C
:1015C000DA61704729B11B4AD2680243194BDA60CD
:1015D00004E0184AD2688243164BDA60704729B19A
:1015E000144A12690243134B1A6104E0114A12694A
:1015F0008243104B1A6170471249403908607047A6
:101600000F49C86470470B49C87170470948406A60
:1016100040F0807007494862704701460020054A43
:1016200092680A400AB1012000E000207047014999
:1016300088727047001002400000FFF8FFFFF6FEBE
:10164000000042428004424200127A0000093D003C
:10165000880100209801002010B50446FE4884420D
:1016600008D10121C014FFF7ADFF0021E014FFF7FE
:10167000A9FFC4E0B4F1804F08D101210846FFF76B
:10168000AEFF00210120FFF7AAFFB8E0F348844233
:1016900008D101210220FFF7A2FF00210220FFF75D
:1016A0009EFFACE0EE48844208D101210420FFF700
:1016B00096FF00210420FFF792FFA0E0E948844252
:1016C00008D101210820FFF78AFF00210820FFF739
:1016D00086FF94E0E448844208D101211020FFF7FE
:1016E0007EFF00211020FFF77AFF88E0DF48844268
:1016F00008D101212020FFF772FF00212020FFF7F1
:101700006EFF7CE0DA48844208D101214014FFF7E3
:1017100059FF00216014FFF755FF70E0D54884425F
:1017200009D10121C804FFF74DFF00214FF400202B
:10173000FFF748FF63E0D048844209D10121080542
:10174000FFF740FF00214FF48010FFF73BFF56E00A
:10175000CA48844209D101214805FFF733FF00211F
:101760004FF40010FFF72EFF49E0C548844208D12E
:1017700001214020FFF733FF00214020FFF72FFF1A
:101780003DE0C048844208D101218020FFF727FFB7
:1017900000218020FFF723FF31E0BB48844208D1BD
:1017A00001218015FFF71BFF0021A015FFF717FF90
:1017B00025E0B648844209D101210804FFF702FF61
:1017C00000214FF48030FFF7FDFE18E0B04884425E
:1017D00009D101214804FFF7F5FE00214FF4003044
:1017E000FFF7F0FE0BE0AB48844208D101218804EA
:1017F000FFF7E8FE00214FF48020FFF7E3FE10BD65
:1018000000220288944B98420ED0994B98420BD0FC
:10181000B0F1804F08D0914B984205D0904B984240
:1018200002D0904B984204D14FF68F731A404B88E8
:101830001A438D4B984207D08C4B984204D04FF6F8
:10184000FF431A40CB881A4302808B8883850B881C
:101850000385814B98420BD0854B984208D08B4B27
:10186000984205D08A4B984202D08A4B984201D1C7
:101870000B7A038601238382704770B5002400220F
:101880000023058C4FF6FE7635400584028C838854
:10189000048B4FF68F752C40B51E2C400D882C43C1
:1018A000751E2A400D892A434D882A436A4DA84255
:1018B0000BD06F4DA84208D0744DA84205D0744D8E
:1018C000A84202D0734DA84213D14FF6F7752A40B3
:1018D0004D892A434FF6FB752A408D882A434FF6DF
:1018E000FF652B404FF6FF552B408D892B43CD894B
:1018F0002B4383800483CD888586028470BD70B5B8
:10190000002400220023058C4FF6EF763540058435
:10191000028C8388048B48F6FF752C404FF6FF45F8
:101920002C400D884FF6FF7606EA05252C434FF62E
:10193000DF752A400D8906EA05152A434D8806EA17
:1019400005152A43444DA84202D0494DA8421DD155
:101950004FF67F752A404D894FF6FF7606EA05154A
:101960002A434FF6BF752A408D8806EA05152A439B
:101970004FF6FF352B404FF2FF752B408D8906EA5D
:1019800085052B43CD8906EA85052B438380048397
:10199000CD880587028470BD70B500240022002325
:1019A000058C4FF6FF6635400584028C8388848B56
:1019B0004FF68F752C404FF6FC752C400D882C434C
:1019C0004FF6FF552A400D894FF6FF7606EA0525AA
:1019D0002A434D8806EA05252A431F4DA84202D016
:1019E000234DA8421DD14FF2FF752A404D894FF675
:1019F000FF7606EA05252A434FF6FF352A408D88F3
:101A000006EA05252A434EF6FF752B404DF6FF7575
:101A10002B408D8906EA05152B43CD8906EA05156D
:101A20002B4383808483CD888587028470BD70B505
:101A3000002200230024058C4EF6FF7635400584F5
:101A4000038C8488828B48F6FF752A404FF6FF4549
:101A50002A400D8820E00000002C014000040040D6
:101A600000080040000C004000100040001400403E
:101A700000340140004C014000500140005401403E
:101A800000180040001C00400020004000400140C1
:101A900000440140004801404FF6FF7606EA052564
:101AA0002A434DF6FF752B400D8906EA05352B4379
:101AB0004D8806EA05352B43F94DA84202D0F94D71
:101AC000A84208D14BF6FF752C408D894FF6FF7662
:101AD00006EA85152C438283CD88A0F84050038404
:101AE00070BD828B4FF2FF331A408283828B4FF698
:101AF000FF7303EA01231A4382837047F0B50C4653
:101B00001546002200210026078C4EF6FF7C07EACE
:101B10000C070784828B018C4FF6FF7707EA0436A7
:101B200040F6FF473A404FF6FF7707EA05273A436A
:101B30004FF6FF7707EA03373A43D94FB8420ED042
:101B4000D84FB8420BD0B0F1804F08D0D64FB84232
:101B500005D0D64FB84202D0D54FB84206D14DF687
:101B6000FF77394046F48057394305E047F6FF5781
:101B7000394044F48057394382830184F0BD828B1D
:101B80004FF6F3731A408283828B0A438283704735
:101B9000F0B50C461546002200210026078C4FF6B2
:101BA000FF6C07EA0C070784828B018C4FF6FF77E6
:101BB00007EA04264FF60C773A404FF6FF7707EA1C
:101BC00003172F433A43B64FB8420ED0B54FB84231
:101BD0000BD0B0F1804F08D0B34FB84205D0B34F0F
:101BE000B84202D0B24FB84206D14FF6FF57394043
:101BF00046F48077394305E04FF2FF57394044F40B
:101C00008077394382830184F0BD028B4FF2FF332A
:101C10001A400283028B4FF6FF7303EA01231A4333
:101C200002837047F0B50C461546002200210026BD
:101C3000078C4FF6EF7C07EA0C070784028B018CB8
:101C40004FF6FF7707EA041640F6FF473A404FF693
:101C5000FF7707EA03373A434FF6FF7707EA05278E
:101C60003A438F4FB8420ED08E4FB8420BD0B0F1EE
:101C7000804F08D08C4FB84205D08C4FB84202D06C
:101C80008B4FB84206D14FF6DF77394046F0100748
:101C9000394305E04FF65F77394044F01007394388
:101CA00002830184F0BD028B4FF6F3731A40028366
:101CB000028B0A4302837047F0B50C46154600229A
:101CC0000021068C4FF6FE773E400684028B018C85
:101CD0004FF60C7632407E1C06EA03162E43324342
:101CE0006F4EB0420ED06F4EB0420BD0B0F1804F6D
:101CF00008D06D4EB04205D06C4EB04202D06C4E52
:101D0000B04206D14FF6FD76314044F00106314332
:101D100005E04FF6F576314044F001063143028389
:101D20000184F0BD70B505460C465D4885420ED075
:101D30005C4885420BD0B5F1804F08D05A488542A7
:101D400005D05A48854202D05948854200D100E06A
:101D500000BF208850B92389A28861882846FFF7F0
:101D6000ABFFE1882846FFF79EFF25E02088042886
:101D70000AD12389A28861882846FFF753FFE188AA
:101D80002846FFF742FF17E0208808280AD1238958
:101D9000A28861882846FFF7FBFEE1882846FFF706
:101DA000EEFE09E02389A28861882846FFF7A6FE97
:101DB000E1882846FFF795FE70BD2DE9F041054604
:101DC0000C4600260127608808B9022600E000269C
:101DD000A088012801D1022700E001272088A0B9AE
:101DE0002389A28861882846FFF766FFE188284694
:101DF000FFF759FF23893A4631462846FFF712FF7D
:101E0000E1882846FFF701FF13E02389A288618853
:101E10002846FFF707FFE1882846FFF7F6FE2389EB
:101E20003A4631462846FFF747FFE1882846FFF744
:101E30003AFFBDE8F0810A884B881A438B881A4321
:101E4000CB881A430B891A434B891A438B891A434F
:101E5000A0F8442070474FF6FF7181800021018077
:101E6000C1804180017270470021018041808180E2
:101E7000C180018141818181C18170470021018040
:101E80004180012181800021C180018170470021B2
:101E9000018041808180C1800181418181817047C1
:101EA000002C0140003401400004004000080040C4
:101EB000000C004021B1028842F00102028004E0DF
:101EC00002884FF6FE731A400280704731B1B0F8B5
:101ED000442042F40042A0F8442005E0B0F8442039
:101EE000C2F30E02A0F8442070471AB183890B4355
:101EF000838102E083898B438381704781827047AD
:101F000041EA0203A0F8483070471AB183890B43B5
:101F1000838102E083898B438381704701894FF677
:101F2000F8721140018170470A46002101894FF67D
:101F30008F73194011430181704730B504460D4637
:101F400029462046FFF7F0FF208940F00700208156
:101F500030BD2DE9F04104460D4616461F46602D62
:101F600006D13B46012231462046FFF75BFE05E0E5
:101F70003B46012231462046FFF79EFE2946204679
:101F8000FFF7D2FF208940F007002081BDE8F081F3
:101F900030B50C4600210189C9B24FF6FF7505EA3C
:101FA0000325154325432943018130BD2DE9F04127
:101FB00005460E4617469846002443463A463146A3
:101FC0002846FFF7E5FF2C894FF6F870044044F0EF
:101FD00007044FF68F70044044F070042C81BDE874
:101FE000F081F0B504460D4616461F463B46324684
:101FF00029462046FFF7CCFF208940F4804020810D
:10200000F0BD0185828270470A46002101884FF6A3
:102010008F731940114301807047F0B50C46154687
:102020001E460021002200230189028B038C4FF6FB
:10203000F877394021434FF6FC473A4040F2011708
:102040003A434FF6DD773B404FF6FF7707EA061736
:102050002F433B43018102830384F0BD0A460021E4
:10206000018B4FF68F7319401143018370470A4665
:102070000021018B48F6FF7319404FF6FF7303EA06
:1020800002231943018370470A460021818B4FF6D2
:102090008F7319401143818370470A460021818B59
:1020A00048F6FF7319404FF6FF7303EA0223194302
:1020B0008183704721B1028842F08002028004E0EF
:1020C00002884FF67F731A400280704721B18288E0
:1020D00042F00402828004E082884FF6FB731A40CB
:1020E0008280704721B1828842F00802828004E039
:1020F00082884FF6F7731A408280704721B1828838
:1021000042F00102828004E082884FF6FE731A409A
:10211000828070470A460021018B4FF6F773194001
:102120001143018370470A460021018B4FF2FF7370
:1021300019404FF6FF7303EA0223194301837047E6
:102140000A460021818B4FF6F773194011438183B2
:1021500070470A460021818B4FF2FF7319404FF6FA
:10216000FF7303EA02231943818370470A46002163
:10217000018B4FF6FB7319401143018370470A46E8
:102180000021018B4FF6FF3319404FF6FF7303EA2E
:1021900002231943018370470A460021818B4FF6C1
:1021A000FB7319401143818370470A460021818BDC
:1021B0004FF6FF3319404FF6FF7303EA022319432A
:1021C000818370470A460021018B4FF67F731940C7
:1021D0001143018370470A460021018BC1F30E01B0
:1021E0004FF6FF7303EA02231943018370470A463F
:1021F0000021818B4FF67F73194011438183704713
:102200000A460021818BC1F30E014FF6FF7303EAEA
:1022100002231943818370470A460021018C4FF63F
:10222000FD7319401143018470470A460021018C57
:102230004FF6F77319401143018470470A46002195
:10224000018C4FF6DF7319404FF6FF7303EA021358
:102250001943018470470A460021018C4FF67F73B1
:1022600019404FF6FF7303EA0213194301847047C4
:102270000A460021018C4FF6FF5319404FF6FF73B9
:1022800003EA02231943018470470A460021018CA6
:102290004FF2FF7319404FF6FF7303EA022319430D
:1022A000018470470A460021018C4DF6FF731940E6
:1022B0004FF6FF7303EA023319430184704730B5C8
:1022C000002301248C40A3B2048C9C430484048C1E
:1022D00002FA01F5ADB22C43048430BD30B50023C1
:1022E00004248C40A3B2048C9C430484048C02FA22
:1022F00001F5ADB22C43048430BD70B50346002017
:1023000000241846183001258D40ACB21D8CA54321
:102310001D8409B1082909D100EB6100056825F089
:10232000700505600568154305600EE00D1FC5F3D7
:102330004E052844056825F4E045056005684FF61C
:10234000FF7606EA02263543056070BD21B102889A
:1023500042F00202028004E002884FF6FD731A4048
:102360000280704721B1028842F00402028004E03A
:1023700002884FF6FB731A400280704721B18288B1
:1023800042F08002828004E082884FF67F731A4018
:102390008280704702884FF6F7731A4002800288E5
:1023A0000A430280704782884FF68F731A408280FA
:1023B00082880A438280704702894FF6F8731A4078
:1023C000028102890A430281704702894FF67F73B6
:1023D0001A40028102890A43028170478184704752
:1023E0008185704781867047018770478187704774
:1023F000A0F84010704702884FF6FF431A40028051
:1024000002880A43028070470146888E7047014661
:10241000088F70470146888F70470146B1F8400029
:1024200070470146888C70470146088D7047024608
:102430000020138A0B400BB1012000E00020704700
:10244000CA430282704730B50246002000230024B0
:10245000158A05EA0103958905EA010413B10CB157
:10246000012000E0002030BDCA4302827047000016
:1024700010B50446FB48844209D101218803FFF7C7
:10248000A1F800214FF48040FFF79CF832E0F648B5
:10249000844209D101214804FFF7A1F800214FF43B
:1024A0000030FFF79CF825E0F048844209D1012173
:1024B0008804FFF794F800214FF48020FFF78FF88D
:1024C00018E0EB48844209D10121C804FFF787F8DE
:1024D00000214FF40020FFF782F80BE0E54884422A
:1024E00008D101210805FFF77AF800214FF4801088
:1024F000FFF775F810BD2DE9F04786B005460E468A
:102500000024A24600BFA1460027B08900B100BF49
:102510002F462C8A4CF6FF700440F08804432C822E
:10252000AC894EF6F3100440B088318908437189B4
:1025300008430443AC81AC8A4FF6FF400440B089A5
:102540000443AC8201A8FEF7B6FFC648874202D119
:10255000DDF810A001E0DDF80CA0A88900F400402F
:1025600040B10AEBCA0000EB0A1031684900B0FB29
:10257000F1F807E00AEBCA0000EB0A1031688900A5
:10258000B0FBF1F86420B8FBF0F0040120096421ED
:1025900001FB1089A88900F4004040B1322000EB13
:1025A000C900B0FBF1F000F00700044308E032205E
:1025B00000EB09106421B0FBF1F000F00F000443C0
:1025C0002C8106B0BDE8F0874FF416510160002160
:1025D0008180C18001810C2141810021818170476E
:1025E00010B502460020108A4FF2FF0318400B88F6
:1025F0004C8823438C882343CC8823431843108280
:1026000010BD0021018041808180C180704721B1CF
:10261000828942F40052828104E082894DF6FF7380
:102620001A4082817047F0B5034600240026002539
:10263000002040F66A17B94200D100BF1846C1F326
:10264000421401F01F06012707FA06F5012C01D1FB
:102650000C3004E0022C01D1103000E014301AB12B
:1026600007682F43076002E00768AF430760F0BDCB
:102670001AB1838A0B43838202E0838A8B4383826D
:102680007047028A4FF6F0731A400282028A0A43A8
:102690000282704782894FF2FF731A4082818289D9
:1026A0000A438281704721B1828942F0020282810D
:1026B00004E082894FF6FD731A4082817047028AD6
:1026C0004FF6DF731A400282028A0A430282704781
:1026D00021B1028A42F48042028204E0028A4BF66F
:1026E000FF731A4002827047C1F30802828070476C
:1026F00001468888C0F308007047818941F00101D4
:1027000081817047028BD2B20283028B42EA01229E
:1027100002837047028B02F47F420283028B0A43DA
:102720000283704721B1828A42F02002828204E053
:10273000828A4FF6DF731A408282704721B1828A03
:1027400042F01002828204E0828A4FF6EF731A4050
:102750008282704721B1828A42F00802828204E0BC
:10276000828A4FF6F7731A408282704721B18289BC
:1027700042F40042828103E08289C2F30E02828128
:10278000704721B1828A42F40062828204E0828A28
:102790004FF2FF731A4082827047828A4FF6FB73B2
:1027A0001A408282828A0A438282704721B1828AD9
:1027B00042F00202828204E0828A4FF6FD731A40E0
:1027C0008282704702460020B1F5007F00D100BF31
:1027D00013880B400BB1012000E00020704701F48A
:1027E0000072B2F5007F00D100BFCA43028070477B
:1027F00070B50246002400230025002040F66A162A
:10280000B14200D100BFC1F3421501F01F03012600
:1028100006FA03F3012D02D19689334006E0022D1A
:1028200002D1168A334001E0968A33400C12012609
:1028300006FA04F41688344013B10CB1012000E00C
:10284000002070BD10B50022002340F66A14A1429A
:1028500000D100BF0A1201249440A3B2DC430480DB
:1028600010BD000000380140004400400048004016
:10287000004C00400050004009488047094800478C
:10288000FEE7FEE7FEE7FEE7FEE7FEE7FEE7FEE720
:10289000FEE7FEE704480549054A064B704700007D
:1028A000032C0008ED000008E0020020E0080020F2
:1028B000E0040020E004002010B56FF00400FEF7F3
:1028C0009EFA584800685849B0FBF1F05749087023
:1028D0000846007800EB4001C1EBC0104FF6FF71D5
:1028E00001EAC0005249088010BD30B501460022FF
:1028F00000234FF0E024206900F0010454B100F4FB
:1029000080343CB901234FF0E024A469474D2D7871
:1029100001FB1542454C24784C434FF0E0256C6197
:102920000024AC612C46246944F001042C6100BFF2
:102930004FF0E024206900F001041CB100F4803461
:10294000002CF5D04FF0E024246924F001044FF06E
:10295000E0252C610024AC61012B07D1002A05DDA4
:102960002C466261246944F001042C6130BD30B50D
:1029700001460020002200234FF0E024206900F0EF
:10298000010454B100F480343CB901234FF0E02439
:10299000A469274D2D8801FB1542254C24884C4302
:1029A0004FF0E0256C610024AC612C46246944F0B2
:1029B00001042C6100BF4FF0E024206900F0010405
:1029C0001CB100F48034002CF5D04FF0E0242469D1
:1029D00024F001044FF0E0252C610024AC61012BB0
:1029E00007D1002A05DD2C466261246944F0010408
:1029F0002C6130BD70B504464FF47A7094FBF0F64C
:102A000094FBF0F100FB114503E04FF47A70FFF7FF
:102A1000AEFF3000A6F10106F7D115B1A8B2FFF75D
:102A2000A6FF70BDA001002000127A009C010020CA
:102A30009E010020014600BF704700BF304A128847
:102A400002F04002002AF9D0C2B22D4B1B1D1A80A1
:102A5000704710B586B00446012144F20400FEF729
:102A600097FD2748FFF704FD4FF40070ADF8140000
:102A700003208DF8160018208DF8170005A92148AD
:102A8000FEF7CAFA4FF48060ADF8140004208DF808
:102A9000170005A91B48FEF7BFFA25208DF8000096
:102AA00003208DF801008DF8020001208DF803004D
:102AB0006846FEF75AF901940020ADF80800ADF819
:102AC0000A00ADF80C00ADF810000C20ADF80E00B7
:102AD00001A90B48FFF70FFD012240F225510848DC
:102AE000FFF7A1FD01210648FFF791FD06B010BDDB
:102AF00010B540F225510248FFF77AFE10BD0000E4
:102B00000038014000080140704700BFFEE700BFE9
:102B1000FEE700BFFEE700BFFEE770477047704763
:102B2000704700000CB500200190009075480068C7
:102B300040F480307349086000BF7248006800F4B8
:102B4000003000900198401C0190009818B901983D
:102B5000B0F5A06FF1D16B48006800F4003010B1FF
:102B60000120009001E0002000900098012843D14E
:102B70006548006840F01000634908600846006836
:102B800020F0030008600846006840F0020008607A
:102B90005C4840685B4948600846406848600846B1
:102BA000406840F4806048600846406820F47C102B
:102BB00048600846406840F4E810486008460068ED
:102BC00040F08070086000BF4E48006800F0007060
:102BD0000028F9D04B48406820F00300494948607C
:102BE0000846406840F00200486000BF4548406821
:102BF00000F00C000828F9D10CBD10B5FFF792FFCA
:102C000010BD10B53F48006840F001003D49086024
:102C1000084640683D4908403A494860084600680F
:102C20003B490840374908600846006820F4802086
:102C300008600846406820F4FE0048604FF41F001A
:102C40008860FFF7DAFF4FF000603249086010BD7E
:102C500010B50021002000222A4B5B6803F00C0114
:102C600021B1042906D0082928D107E02A4B2B4C92
:102C7000236027E0284B294C236023E0214B5B682D
:102C800003F470101F4B5B6803F48032022303EBE4
:102C9000904022B9224B4343204C23600DE0194B56
:102CA0005B6803F4003323B11D4B43431B4C23608B
:102CB00003E0194B4343194C236003E0164B174CB8
:102CC000236000BF00BF0F4B5B68C3F30313154CB9
:102CD000E15C124B1B68CB40104C236010BD0146D9
:102CE0004906084A926942F00102064B9A610E4A6F
:102CF000526822F0E0620C4B5A601A4652680A434E
:102D00005A60704700100240002002400000FFF8A7
:102D1000FFFFF6FE08ED00E000127A00A00100209F
:102D200000093D00A401002000000140704710B5DB
:102D3000431C02E010F8011B71B18107FAD14FF07A
:102D4000013202C88C1A8C4314EAC211F9D0C01A9D
:102D50000A0603D0C01E10BDC01A10BD0A0401D05F
:102D6000801E10BD0902FCD0401E10BD4FF0013C7A
:102D700050F8042B51F8043B9A4221D1A2EB0C03EA
:102D8000934313EACC1317D150F8042B51F8043BAA
:102D90009A4215D1A2EB0C03934313EACC130BD147
:102DA00050F8042B51F8043B9A4209D1A2EB0C03D2
:102DB000934313EACC13DBD04FF00000704700BF01
:102DC000D01A01BAB1FA81F101F0180122FA01F02A
:102DD000CB40C1F12001DBB2C0B2C01A2CFA01F322
:102DE000D11A914311EAC311E6D170477047704779
:102DF00070477047004870477C0200207546FFF717
:102E0000F9FFAE4605006946534620F007008546A7
:102E100018B020B5FFF73EFDBDE820404FF000069A
:102E20004FF000074FF000084FF0000B21F00701B2
:102E3000AC46ACE8C009ACE8C009ACE8C009ACE8F5
:102E4000C0098D4670470446AFF300802046FDF769
:102E5000B4F9000090EA010F48BF81F0004100F191
:102E6000AC81421A3CBF801A89184FEAD0524FF009
:102E70007F4C1CEA410FA2EBD15318BF9CEA026FB2
:102E800000F03B804FF0004C4CEA00204CEA01215E
:102E900021FA03FC10EB0C0C1ED202F1FF325FEAA8
:102EA0001C2040EBC25038BF70471CF07F0F4FEA28
:102EB000400C18BFBCF17F4F38BF7047C3F12003EF
:102EC000994008BF20F00100BCF17F4F38BF704728
:102ED000A0F1C04000F05BB94FEA3C00000A40EBB3
:102EE000C25028BF1CF0FF0F4FEA400CE6D018BFBD
:102EF000BCF17F4F38BF7047EAE79CEA026F05D00C
:102F000010EA5C0F08BF00F00040704710B500F0F9
:102F1000F8F800BF64FBBE3E401058BFC0F140400F
:102F2000491058BFC1F140418142EFF30080704722
:102F300041000B0ED3F19E0208D950F400034FEA72
:102F4000032323FA02F048BF4042704710B500F057
:102F5000D8F800BF49922480002070476FF00042EB
:102F600082EA20007047000010F0004148BF404254
:102F7000B0FA80F310FA03F2C3F19D030BD051EACB
:102F8000C35101EB1220530638BF704700F1010016
:102F900008BF20F00100704750EA010C00F11380D7
:102FA0001CF5000F58BFBCF5000F01D488427047D4
:102FB00007D710F5000F58BF11F5000F15D4884240
:102FC0007047894270471CF5000F04D5BCF5000F0F
:102FD000F7D5814270474FF0807C1CEB400F38BF23
:102FE0001CEB410F01D28142704710B500F089F807
:102FF000922449004FF000504FF08051FFF78CBFF2
:103000004FF47F0C1CEAD0121EBF1CEAD11392EAC7
:103010000C0F93EA0C0F00F0478090EA010F48BFB5
:1030200042F480724FF0004C4CEA00204CEA01213F
:1030300002EB0302A0FB0113A2F50002002918BF56
:1030400043F001035B0028BF4FEA330342EB224207
:103050005FEA132C4CEBC2502EBFBCEB436FB2F5B2
:103060007C0F70474FEA036CBCF1004F08BF20F0A3
:103070000100B2F57C0F38BF70470BD582F0FF021C
:1030800012F5803FC8BF704700F1C040D8BF00F0C4
:103090000040704700F5000C5FEA4C0C48BF7047D9
:1030A000B0F1C04000F073B890EA010F0CEAD11300
:1030B00048BF42F48072624538BF634504D280EA5B
:1030C000010000F00040704710B500F01AF800BF92
:1030D0008900013E00F007B800F009B85FEA410C32
:1030E0005FEA1C6C08D080EA010000F050B85FEA8B
:1030F000400C5FEA1C6CF6D14FF00040A0F5800058
:1031000070470EF1020E2EF0030E5EF8044B2442BF
:1031100004D44FEA4102B2F17F4F11D84FEA400385
:10312000B3F17F4F0CD80ED14FEAD07CB2F17F4F74
:103130000CEB4C0C0CF1020C08BF4CEBD17C04E006
:103140004FF0080C01E04FEAD17C0CEB4C0324FA61
:1031500003F404F00704B4F1040C06D20EEB840C63
:10316000BDE810404CF0010C6047DFE80CF00708A8
:1031700002024FF00040A0F5800010BD084642005A
:1031800018BFD2F1807288BF00F0004010BDFF214F
:1031900041EAD050C005704780F0004090EA010F2E
:1031A0007FF55FAE81F0004100F007B890EA010FB3
:1031B00048BF81F000413FF554AE421A04D882F076
:1031C0000042A0EB020011444FEAD0524FF07F4C76
:1031D0001CEA410FA2EBD15318BF9CEA026F4AD000
:1031E0004FF0004C4CEA00204CEA012121FA03FC8C
:1031F000B0EB0C0C0FD412F0FE0F36D05FEA4C008F
:103200001DD5001240EBC25038BF70471CF03F0F75
:1032100018BF70470BE0A2F101025FEA1C2040EBEF
:10322000C25038BF70471CF07F0F18BF7047C3F102
:103230002003994014BF401E20F001007047800811
:103240004FEA122308BF7047B0FA80FCA2EB0C02D1
:10325000CCF1280C60FA0CF093EA122F04BF00EBBB
:10326000C25070474FEAC3707047130A5FEADC1020
:1032700008BF7047F6E79CEA026F04D010EA5C0FC3
:1032800008BF0020704710B5FFF73BFF40DFF63E58
:1032900081F0004070470000000000000000002F97
:1032A000000000000700070000147F147F140024B2
:1032B0002A7F2A12006264081323003649552250DF
:1032C00000000503000000001C2241000000412214
:1032D0001C000014083E08140008083E08080000FE
:1032E00000A06000000808080808000060600000F6
:1032F000002010080402003E5149453E0000427F74
:103300004000004261514946002141454B310018BF
:1033100014127F10002745454539003C4A49493081
:10332000000171090503003649494936000649493B
:10333000291E000036360000000056360000000846
:103340001422410000141414141400004122140823
:1033500000020151090600324959513E007C121108
:10336000127C007F49494936003E41414122007F9D
:103370004141221C007F49494941007F0909090157
:10338000003E4149497A007F0808087F0000417FDC
:103390004100002040413F01007F08142241007F8E
:1033A00040404040007F020C027F007F0408107FF5
:1033B000003E4141413E007F09090906003E41515E
:1033C000215E007F0919294600464949493100011B
:1033D000017F0101003F4040403F001F2040201F6F
:1033E000003F4038403F0063140814630007087032
:1033F000080700615149454300007F4141000055E5
:103400002A552A55000041417F00000402010204B0
:10341000004040404040000001020400002054549D
:103420005478007F484444380038444444200038ED
:103430004444487F00385454541800087E0901025F
:103440000018A4A4A47C007F080404780000447D34
:103450004000004080847D00007F10284400000070
:10346000417F4000007C04180478007C0804047844
:1034700000384444443800FC242424180018242430
:1034800018FC007C0804040800485454542000042C
:103490003F444020003C4040207C001C2040201C39
:1034A000003C4030403C004428102844001CA0A0B0
:1034B000A07C004464544C441414141414140000EC
:1034C00000000000000000000000000000000000FC
:1034D00000F8000000000000003330000000001081
:1034E0000C06100C0600000000000000000040C0A8
:1034F0007840C0784000043F04043F04040000709A
:1035000088FC08300000001820FF211E0000F00891
:10351000F000E018000000211C031E211E0000F036
:103520000888700000001E2123241927211010167E
:103530000E0000000000000000000000000000007D
:1035400000E01804020000000007182040000002FC
:103550000418E00000000040201807000000404070
:1035600080F0804040000202010F010202000000D2
:1035700000F0000000000101011F01010100000036
:1035800000000000000080B070000000000000009B
:103590000000000000000001010101010101000024
:1035A00000000000000000303000000000000000BB
:1035B000000080601804006018060100000000E0B0
:1035C00010080810E000000F102020100F0000105D
:1035D00010F8000000000020203F202000000070B4
:1035E00008080888700000302824222130000030AC
:1035F0000888884830000018202020110E000000A4
:10360000C02010F8000000070424243F240000F824
:103610000888880808000019212020110E0000E009
:10362000108888180000000F112020110E000038AB
:103630000808C83808000000003F000000000070C3
:10364000880808887000001C222121221C0000E04C
:1036500010080810E0000000312222110F000000C5
:1036600000C0C0000000000000303000000000007A
:1036700000800000000000008060000000000000EA
:103680008040201008000001020408102000404083
:1036900040404040400004040404040404000008C6
:1036A000102040800000002010080402010000707B
:1036B00048080808F0000000003036010000C03063
:1036C000C828E810E0000718272423140B00000086
:1036D000C038E0000000203C23020227382008F810
:1036E000888888700000203F202020110E00C03004
:1036F000080808083800071820202010080008F8DB
:1037000008080810E000203F202020100F0008F8D3
:103710008888E8081000203F20202320180008F89F
:103720008888E8081000203F200003000000C03017
:1037300008080838000007182020221E020008F898
:1037400008000008F808203F210101213F2000085F
:1037500008F8080800000020203F2020000000009A
:103760000808F8080800C08080807F00000008F882
:1037700088C028180800203F20012638200008F8BB
:10378000080000000000203F20202020300008F822
:10379000F800F8F80800203F003F003F200008F83C
:1037A00030C00008F808203F200007183F00E01054
:1037B00008080810E0000F10202020100F0008F863
:1037C00008080808F000203F210101010000E01076
:1037D00008080810E0000F18242438504F0008F89B
:1037E000888888887000203F2000030C30200070FB
:1037F0008808080838000038202121221C001808F9
:1038000008F8080818000000203F2000000008F811
:1038100008000008F808001F202020201F0008785A
:10382000880000C83808000007380E010000F808BA
:1038300000F80008F800033C0700073C03000818E4
:1038400068808068180820302C03032C302008384A
:10385000C800C83808000000203F20000000100801
:103860000808C83808002038262120201800000049
:1038700000FE020202000000007F40404000000CF9
:1038800030C000000000000000010638C000000247
:103890000202FE000000004040407F0000000000E7
:1038A000040202020400000000000000000000000A
:1038B0000000000000008080808080808080000206
:1038C00002040000000000000000000000000000F2
:1038D0008080808000000019242222223F2008F8E6
:1038E000008080000000003F112020110E00000029
:1038F000008080800000000E1120202011000000B8
:1039000000808088F800000E112020103F20000069
:10391000808080800000001F22222222130000806D
:1039200080F0888888180020203F202000000000B8
:10393000808080808000006B94949493600008F8ED
:10394000008080800000203F210000203F20008078
:103950009898000000000020203F20200000000078
:1039600000809898000000C08080807F000008F8E8
:10397000000080808000203F24022D3020000008BD
:1039800008F8000000000020203F20200000808078
:10399000808080808000203F20003F20003F80808A
:1039A000008080800000203F210000203F20000098
:1039B000808080800000001F202020201F00808049
:1039C00000808000000080FFA12020110E00000078
:1039D000008080808000000E112020A0FF80808069
:1039E00080008080800020203F2120000100000016
:1039F00080808080800000332424242419000080EB
:103A000080E0808000000000001F202000008080F7
:103A1000000000808000001F202020103F208080B8
:103A200080000080808000010E3008060100808048
:103A30000080008080800F300C030C300F0000806D
:103A40008000808080000020312E0E312000808098
:103A500080000080808080818E70180601000080C8
:103A60008080808080000021302C222130000000E6
:103A70000000807C020200000000003F4040000087
:103A80000000FF00000000000000FF000000000236
:103A9000027C800000000040403F00000000000663
:103AA0000101020204040000000000000000000008
:103AB000D03A000800000020B401000028010008EE
:103AC000A03B0008B40100202C070000840100087E
:103AD00091180CFE225A86088868180FE808010120
:103AE00012000F11FF04080720110D41817F01050D
:103AF000093010085E50505F5050DE0515FE02027E
:103B0000FE20097E4222221293601F05113F404091
:103B10007800101282BAAAAABA82BE8220180FC8F0
:103B2000082818171E12125E807F00081180601C82
:103B3000031C60804A20015AFF0801111008808090
:103B40004020100C030F10030C102040804019A1DE
:103B50005A920104129E80E01A040128080C3404D1
:103B60000444847F0B0111151060028C080A120CAA
:103B7000A4A4A5E6A4A4A40C40137E010809128005
:103B80004F2A0A0F0A2A4F7F312D010203040450E5
:103B90000906070809020406087BA24A6D691C0091
:04000005080000ED02
:00000001FF
